{
  "_format": "hh-sol-artifact-1",
  "contractName": "NFT",
  "sourceName": "contracts/NFT.sol",
  "abi": [
    {
      "inputs": [],
      "stateMutability": "nonpayable",
      "type": "constructor"
    },
    {
      "anonymous": false,
      "inputs": [
        {
          "indexed": false,
          "internalType": "address",
          "name": "previousAdmin",
          "type": "address"
        },
        {
          "indexed": false,
          "internalType": "address",
          "name": "newAdmin",
          "type": "address"
        }
      ],
      "name": "AdminChanged",
      "type": "event"
    },
    {
      "anonymous": false,
      "inputs": [
        {
          "indexed": true,
          "internalType": "address",
          "name": "owner",
          "type": "address"
        },
        {
          "indexed": true,
          "internalType": "address",
          "name": "approved",
          "type": "address"
        },
        {
          "indexed": true,
          "internalType": "uint256",
          "name": "tokenId",
          "type": "uint256"
        }
      ],
      "name": "Approval",
      "type": "event"
    },
    {
      "anonymous": false,
      "inputs": [
        {
          "indexed": true,
          "internalType": "address",
          "name": "owner",
          "type": "address"
        },
        {
          "indexed": true,
          "internalType": "address",
          "name": "operator",
          "type": "address"
        },
        {
          "indexed": false,
          "internalType": "bool",
          "name": "approved",
          "type": "bool"
        }
      ],
      "name": "ApprovalForAll",
      "type": "event"
    },
    {
      "anonymous": false,
      "inputs": [
        {
          "indexed": true,
          "internalType": "address",
          "name": "beacon",
          "type": "address"
        }
      ],
      "name": "BeaconUpgraded",
      "type": "event"
    },
    {
      "anonymous": false,
      "inputs": [
        {
          "indexed": true,
          "internalType": "address",
          "name": "previousOwner",
          "type": "address"
        },
        {
          "indexed": true,
          "internalType": "address",
          "name": "newOwner",
          "type": "address"
        }
      ],
      "name": "OwnershipTransferred",
      "type": "event"
    },
    {
      "anonymous": false,
      "inputs": [
        {
          "indexed": true,
          "internalType": "address",
          "name": "from",
          "type": "address"
        },
        {
          "indexed": true,
          "internalType": "address",
          "name": "to",
          "type": "address"
        },
        {
          "indexed": true,
          "internalType": "uint256",
          "name": "tokenId",
          "type": "uint256"
        }
      ],
      "name": "Transfer",
      "type": "event"
    },
    {
      "anonymous": false,
      "inputs": [
        {
          "indexed": true,
          "internalType": "address",
          "name": "implementation",
          "type": "address"
        }
      ],
      "name": "Upgraded",
      "type": "event"
    },
    {
      "inputs": [],
      "name": "MAX_SUPPLY",
      "outputs": [
        {
          "internalType": "uint256",
          "name": "",
          "type": "uint256"
        }
      ],
      "stateMutability": "view",
      "type": "function"
    },
    {
      "inputs": [
        {
          "internalType": "address",
          "name": "to",
          "type": "address"
        },
        {
          "internalType": "uint256",
          "name": "tokenId",
          "type": "uint256"
        }
      ],
      "name": "approve",
      "outputs": [],
      "stateMutability": "nonpayable",
      "type": "function"
    },
    {
      "inputs": [
        {
          "internalType": "address",
          "name": "owner",
          "type": "address"
        }
      ],
      "name": "balanceOf",
      "outputs": [
        {
          "internalType": "uint256",
          "name": "",
          "type": "uint256"
        }
      ],
      "stateMutability": "view",
      "type": "function"
    },
    {
      "inputs": [],
      "name": "contractURI",
      "outputs": [
        {
          "internalType": "string",
          "name": "",
          "type": "string"
        }
      ],
      "stateMutability": "view",
      "type": "function"
    },
    {
      "inputs": [
        {
          "internalType": "string",
          "name": "tokenURI",
          "type": "string"
        }
      ],
      "name": "createToken",
      "outputs": [
        {
          "internalType": "uint256",
          "name": "",
          "type": "uint256"
        }
      ],
      "stateMutability": "nonpayable",
      "type": "function"
    },
    {
      "inputs": [
        {
          "internalType": "uint256",
          "name": "tokenId",
          "type": "uint256"
        }
      ],
      "name": "getApproved",
      "outputs": [
        {
          "internalType": "address",
          "name": "",
          "type": "address"
        }
      ],
      "stateMutability": "view",
      "type": "function"
    },
    {
      "inputs": [
        {
          "internalType": "address",
          "name": "marketplaceAddress",
          "type": "address"
        },
        {
          "internalType": "string",
          "name": "name",
          "type": "string"
        },
        {
          "internalType": "string",
          "name": "symbol",
          "type": "string"
        }
      ],
      "name": "initialize",
      "outputs": [],
      "stateMutability": "nonpayable",
      "type": "function"
    },
    {
      "inputs": [
        {
          "internalType": "address",
          "name": "owner",
          "type": "address"
        },
        {
          "internalType": "address",
          "name": "operator",
          "type": "address"
        }
      ],
      "name": "isApprovedForAll",
      "outputs": [
        {
          "internalType": "bool",
          "name": "",
          "type": "bool"
        }
      ],
      "stateMutability": "view",
      "type": "function"
    },
    {
      "inputs": [],
      "name": "name",
      "outputs": [
        {
          "internalType": "string",
          "name": "",
          "type": "string"
        }
      ],
      "stateMutability": "view",
      "type": "function"
    },
    {
      "inputs": [],
      "name": "owner",
      "outputs": [
        {
          "internalType": "address",
          "name": "",
          "type": "address"
        }
      ],
      "stateMutability": "view",
      "type": "function"
    },
    {
      "inputs": [
        {
          "internalType": "uint256",
          "name": "tokenId",
          "type": "uint256"
        }
      ],
      "name": "ownerOf",
      "outputs": [
        {
          "internalType": "address",
          "name": "",
          "type": "address"
        }
      ],
      "stateMutability": "view",
      "type": "function"
    },
    {
      "inputs": [],
      "name": "renounceOwnership",
      "outputs": [],
      "stateMutability": "nonpayable",
      "type": "function"
    },
    {
      "inputs": [],
      "name": "royaltiesPercentage",
      "outputs": [
        {
          "internalType": "uint256",
          "name": "",
          "type": "uint256"
        }
      ],
      "stateMutability": "view",
      "type": "function"
    },
    {
      "inputs": [],
      "name": "royaltiesReceiver",
      "outputs": [
        {
          "internalType": "address",
          "name": "",
          "type": "address"
        }
      ],
      "stateMutability": "nonpayable",
      "type": "function"
    },
    {
      "inputs": [
        {
          "internalType": "uint256",
          "name": "_tokenId",
          "type": "uint256"
        },
        {
          "internalType": "uint256",
          "name": "_salePrice",
          "type": "uint256"
        }
      ],
      "name": "royaltyInfo",
      "outputs": [
        {
          "internalType": "address",
          "name": "receiver",
          "type": "address"
        },
        {
          "internalType": "uint256",
          "name": "royaltyAmount",
          "type": "uint256"
        }
      ],
      "stateMutability": "view",
      "type": "function"
    },
    {
      "inputs": [
        {
          "internalType": "address",
          "name": "from",
          "type": "address"
        },
        {
          "internalType": "address",
          "name": "to",
          "type": "address"
        },
        {
          "internalType": "uint256",
          "name": "tokenId",
          "type": "uint256"
        }
      ],
      "name": "safeTransferFrom",
      "outputs": [],
      "stateMutability": "nonpayable",
      "type": "function"
    },
    {
      "inputs": [
        {
          "internalType": "address",
          "name": "from",
          "type": "address"
        },
        {
          "internalType": "address",
          "name": "to",
          "type": "address"
        },
        {
          "internalType": "uint256",
          "name": "tokenId",
          "type": "uint256"
        },
        {
          "internalType": "bytes",
          "name": "_data",
          "type": "bytes"
        }
      ],
      "name": "safeTransferFrom",
      "outputs": [],
      "stateMutability": "nonpayable",
      "type": "function"
    },
    {
      "inputs": [
        {
          "internalType": "address",
          "name": "operator",
          "type": "address"
        },
        {
          "internalType": "bool",
          "name": "approved",
          "type": "bool"
        }
      ],
      "name": "setApprovalForAll",
      "outputs": [],
      "stateMutability": "nonpayable",
      "type": "function"
    },
    {
      "inputs": [
        {
          "internalType": "address",
          "name": "newRoyaltiesReceiver",
          "type": "address"
        }
      ],
      "name": "setRoyaltiesReceiver",
      "outputs": [],
      "stateMutability": "nonpayable",
      "type": "function"
    },
    {
      "inputs": [
        {
          "internalType": "bytes4",
          "name": "interfaceId",
          "type": "bytes4"
        }
      ],
      "name": "supportsInterface",
      "outputs": [
        {
          "internalType": "bool",
          "name": "",
          "type": "bool"
        }
      ],
      "stateMutability": "view",
      "type": "function"
    },
    {
      "inputs": [],
      "name": "symbol",
      "outputs": [
        {
          "internalType": "string",
          "name": "",
          "type": "string"
        }
      ],
      "stateMutability": "view",
      "type": "function"
    },
    {
      "inputs": [
        {
          "internalType": "uint256",
          "name": "index",
          "type": "uint256"
        }
      ],
      "name": "tokenByIndex",
      "outputs": [
        {
          "internalType": "uint256",
          "name": "",
          "type": "uint256"
        }
      ],
      "stateMutability": "view",
      "type": "function"
    },
    {
      "inputs": [
        {
          "internalType": "address",
          "name": "owner",
          "type": "address"
        },
        {
          "internalType": "uint256",
          "name": "index",
          "type": "uint256"
        }
      ],
      "name": "tokenOfOwnerByIndex",
      "outputs": [
        {
          "internalType": "uint256",
          "name": "",
          "type": "uint256"
        }
      ],
      "stateMutability": "view",
      "type": "function"
    },
    {
      "inputs": [
        {
          "internalType": "uint256",
          "name": "tokenId",
          "type": "uint256"
        }
      ],
      "name": "tokenURI",
      "outputs": [
        {
          "internalType": "string",
          "name": "",
          "type": "string"
        }
      ],
      "stateMutability": "view",
      "type": "function"
    },
    {
      "inputs": [
        {
          "internalType": "address",
          "name": "_owner",
          "type": "address"
        }
      ],
      "name": "tokensOfOwner",
      "outputs": [
        {
          "internalType": "uint256[]",
          "name": "ownerTokens",
          "type": "uint256[]"
        }
      ],
      "stateMutability": "view",
      "type": "function"
    },
    {
      "inputs": [],
      "name": "totalSupply",
      "outputs": [
        {
          "internalType": "uint256",
          "name": "",
          "type": "uint256"
        }
      ],
      "stateMutability": "view",
      "type": "function"
    },
    {
      "inputs": [
        {
          "internalType": "address",
          "name": "from",
          "type": "address"
        },
        {
          "internalType": "address",
          "name": "to",
          "type": "address"
        },
        {
          "internalType": "uint256",
          "name": "tokenId",
          "type": "uint256"
        }
      ],
      "name": "transferFrom",
      "outputs": [],
      "stateMutability": "nonpayable",
      "type": "function"
    },
    {
      "inputs": [
        {
          "internalType": "address",
          "name": "newOwner",
          "type": "address"
        }
      ],
      "name": "transferOwnership",
      "outputs": [],
      "stateMutability": "nonpayable",
      "type": "function"
    },
    {
      "inputs": [
        {
          "internalType": "address",
          "name": "newImplementation",
          "type": "address"
        }
      ],
      "name": "upgradeTo",
      "outputs": [],
      "stateMutability": "nonpayable",
      "type": "function"
    },
    {
      "inputs": [
        {
          "internalType": "address",
          "name": "newImplementation",
          "type": "address"
        },
        {
          "internalType": "bytes",
          "name": "data",
          "type": "bytes"
        }
      ],
      "name": "upgradeToAndCall",
      "outputs": [],
      "stateMutability": "payable",
      "type": "function"
    },
    {
      "inputs": [],
      "name": "version",
      "outputs": [
        {
          "internalType": "string",
          "name": "",
          "type": "string"
        }
      ],
      "stateMutability": "view",
      "type": "function"
    }
  ],
  "bytecode": "0x60a06040523060601b6080523480156200001857600080fd5b50600054610100900460ff16620000365760005460ff161562000040565b62000040620000e5565b620000a85760405162461bcd60e51b815260206004820152602e60248201527f496e697469616c697a61626c653a20636f6e747261637420697320616c72656160448201526d191e481a5b9a5d1a585b1a5e995960921b606482015260840160405180910390fd5b600054610100900460ff16158015620000cb576000805461ffff19166101011790555b8015620000de576000805461ff00191690555b5062000109565b6000620000fd306200010360201b6200114e1760201c565b15905090565b3b151590565b60805160601c612d9f6200013d600039600081816109590152818161099901528181610ad30152610b130152612d9f6000f3fe6080604052600436106101d85760003560e01c80636352211e11610102578063a3a51bd511610095578063cafa8dfe11610064578063cafa8dfe14610560578063e8a3d48514610575578063e985e9c51461058a578063f2fde38b146105d357600080fd5b8063a3a51bd5146104e1578063b514371514610500578063b88d4fde14610520578063c87b56dd1461054057600080fd5b80638da5cb5b116100d15780638da5cb5b1461046d578063906571471461048c57806395d89b41146104ac578063a22cb465146104c157600080fd5b80636352211e146103eb57806370a082311461040b578063715018a61461042b5780638462151c1461044057600080fd5b80632f745c591161017a57806345576f941161014957806345576f94146103835780634f1ef286146103a35780634f6ccce7146103b657806354fd4d50146103d657600080fd5b80632f745c591461030d57806332cb6b0c1461032d5780633659cfe61461034357806342842e0e1461036357600080fd5b8063095ea7b3116101b6578063095ea7b31461026c57806318160ddd1461028e57806323b872dd146102ae5780632a55205a146102ce57600080fd5b806301ffc9a7146101dd57806306fdde0314610212578063081812fc14610234575b600080fd5b3480156101e957600080fd5b506101fd6101f83660046127f3565b6105f3565b60405190151581526020015b60405180910390f35b34801561021e57600080fd5b5061022761061e565b604051610209919061298f565b34801561024057600080fd5b5061025461024f36600461285e565b6106b0565b6040516001600160a01b039091168152602001610209565b34801561027857600080fd5b5061028c6102873660046127ca565b61073d565b005b34801561029a57600080fd5b50610161545b604051908152602001610209565b3480156102ba57600080fd5b5061028c6102c9366004612632565b610853565b3480156102da57600080fd5b506102ee6102e9366004612876565b610884565b604080516001600160a01b039093168352602083019190915201610209565b34801561031957600080fd5b506102a06103283660046127ca565b6108b7565b34801561033957600080fd5b506102a0611e6181565b34801561034f57600080fd5b5061028c61035e3660046125e6565b61094e565b34801561036f57600080fd5b5061028c61037e366004612632565b610a17565b34801561038f57600080fd5b506102a061039e36600461282b565b610a32565b61028c6103b136600461270d565b610ac8565b3480156103c257600080fd5b506102a06103d136600461285e565b610b82565b3480156103e257600080fd5b50610227610c25565b3480156103f757600080fd5b5061025461040636600461285e565b610cb4565b34801561041757600080fd5b506102a06104263660046125e6565b610d2b565b34801561043757600080fd5b5061028c610db2565b34801561044c57600080fd5b5061046061045b3660046125e6565b610de9565b604051610209919061294b565b34801561047957600080fd5b5061012d546001600160a01b0316610254565b34801561049857600080fd5b5061028c6104a7366004612759565b610ec3565b3480156104b857600080fd5b50610227610fd4565b3480156104cd57600080fd5b5061028c6104dc3660046126d3565b610fe3565b3480156104ed57600080fd5b50610193546001600160a01b0316610254565b34801561050c57600080fd5b5061028c61051b3660046125e6565b610fee565b34801561052c57600080fd5b5061028c61053b36600461266d565b611058565b34801561054c57600080fd5b5061022761055b36600461285e565b61108a565b34801561056c57600080fd5b506102a0600581565b34801561058157600080fd5b50610227611095565b34801561059657600080fd5b506101fd6105a5366004612600565b6001600160a01b039182166000908152606a6020908152604080832093909416825291909152205460ff1690565b3480156105df57600080fd5b5061028c6105ee3660046125e6565b6110b5565b60006001600160e01b0319821663152a902d60e11b1480610618575061061882611154565b92915050565b60606065805461062d90612beb565b80601f016020809104026020016040519081016040528092919081815260200182805461065990612beb565b80156106a65780601f1061067b576101008083540402835291602001916106a6565b820191906000526020600020905b81548152906001019060200180831161068957829003601f168201915b5050505050905090565b60006106bb82611179565b6107215760405162461bcd60e51b815260206004820152602c60248201527f4552433732313a20617070726f76656420717565727920666f72206e6f6e657860448201526b34b9ba32b73a103a37b5b2b760a11b60648201526084015b60405180910390fd5b506000908152606960205260409020546001600160a01b031690565b600061074882610cb4565b9050806001600160a01b0316836001600160a01b031614156107b65760405162461bcd60e51b815260206004820152602160248201527f4552433732313a20617070726f76616c20746f2063757272656e74206f776e656044820152603960f91b6064820152608401610718565b336001600160a01b03821614806107d257506107d281336105a5565b6108445760405162461bcd60e51b815260206004820152603860248201527f4552433732313a20617070726f76652063616c6c6572206973206e6f74206f7760448201527f6e6572206e6f7220617070726f76656420666f7220616c6c00000000000000006064820152608401610718565b61084e8383611196565b505050565b61085d3382611204565b6108795760405162461bcd60e51b815260040161071890612ac1565b61084e8383836112ee565b600080806064610895600586612b89565b61089f9190612b75565b610193546001600160a01b0316969095509350505050565b60006108c283610d2b565b82106109245760405162461bcd60e51b815260206004820152602b60248201527f455243373231456e756d657261626c653a206f776e657220696e646578206f7560448201526a74206f6620626f756e647360a81b6064820152608401610718565b506001600160a01b0391909116600090815261015f60209081526040808320938352929052205490565b306001600160a01b037f00000000000000000000000000000000000000000000000000000000000000001614156109975760405162461bcd60e51b8152600401610718906129f4565b7f00000000000000000000000000000000000000000000000000000000000000006001600160a01b03166109c9611499565b6001600160a01b0316146109ef5760405162461bcd60e51b815260040161071890612a40565b6109f8816114c7565b60408051600080825260208201909252610a149183919061151d565b50565b61084e83838360405180602001604052806000815250611058565b6000611e61610a416101615490565b1115610a835760405162461bcd60e51b8152602060048201526011602482015270105b1b081d1bdad95b9cc81b5a5b9d1959607a1b6044820152606401610718565b6000610a8f6101615490565b610a9a906001612b5d565b9050610aa63382611668565b610ab08184611682565b61019154610618906001600160a01b03166001610fe3565b306001600160a01b037f0000000000000000000000000000000000000000000000000000000000000000161415610b115760405162461bcd60e51b8152600401610718906129f4565b7f00000000000000000000000000000000000000000000000000000000000000006001600160a01b0316610b43611499565b6001600160a01b031614610b695760405162461bcd60e51b815260040161071890612a40565b610b72826114c7565b610b7e8282600161151d565b5050565b6000610b8e6101615490565b8210610bf15760405162461bcd60e51b815260206004820152602c60248201527f455243373231456e756d657261626c653a20676c6f62616c20696e646578206f60448201526b7574206f6620626f756e647360a01b6064820152608401610718565b6101618281548110610c1357634e487b7160e01b600052603260045260246000fd5b90600052602060002001549050919050565b6101928054610c3390612beb565b80601f0160208091040260200160405190810160405280929190818152602001828054610c5f90612beb565b8015610cac5780601f10610c8157610100808354040283529160200191610cac565b820191906000526020600020905b815481529060010190602001808311610c8f57829003601f168201915b505050505081565b6000818152606760205260408120546001600160a01b0316806106185760405162461bcd60e51b815260206004820152602960248201527f4552433732313a206f776e657220717565727920666f72206e6f6e657869737460448201526832b73a103a37b5b2b760b91b6064820152608401610718565b60006001600160a01b038216610d965760405162461bcd60e51b815260206004820152602a60248201527f4552433732313a2062616c616e636520717565727920666f7220746865207a65604482015269726f206164647265737360b01b6064820152608401610718565b506001600160a01b031660009081526068602052604090205490565b61012d546001600160a01b03163314610ddd5760405162461bcd60e51b815260040161071890612a8c565b610de7600061170d565b565b60606000610df683610d2b565b905060008167ffffffffffffffff811115610e2157634e487b7160e01b600052604160045260246000fd5b604051908082528060200260200182016040528015610e4a578160200160208202803683370190505b50905081610e6957505060408051600081526020810190915292915050565b60005b82811015610ebb57610e7e85826108b7565b828281518110610e9e57634e487b7160e01b600052603260045260246000fd5b602090810291909101015280610eb381612c26565b915050610e6c565b509392505050565b600054610100900460ff16610ede5760005460ff1615610ee2565b303b155b610f455760405162461bcd60e51b815260206004820152602e60248201527f496e697469616c697a61626c653a20636f6e747261637420697320616c72656160448201526d191e481a5b9a5d1a585b1a5e995960921b6064820152608401610718565b600054610100900460ff16158015610f67576000805461ffff19166101011790555b610f718383611760565b610f796117a1565b610f816117a1565b610f896117e0565b610f91611817565b61019180546001600160a01b0386166001600160a01b0319918216179091556101938054909116331790558015610fce576000805461ff00191690555b50505050565b60606066805461062d90612beb565b610b7e33838361183e565b61012d546001600160a01b031633146110195760405162461bcd60e51b815260040161071890612a8c565b610193546001600160a01b038281169116141561103557600080fd5b61019380546001600160a01b0319166001600160a01b0392909216919091179055565b6110623383611204565b61107e5760405162461bcd60e51b815260040161071890612ac1565b610fce8484848461190d565b606061061882611940565b60606040518060c0016040528060958152602001612cae60959139905090565b61012d546001600160a01b031633146110e05760405162461bcd60e51b815260040161071890612a8c565b6001600160a01b0381166111455760405162461bcd60e51b815260206004820152602660248201527f4f776e61626c653a206e6577206f776e657220697320746865207a65726f206160448201526564647265737360d01b6064820152608401610718565b610a148161170d565b3b151590565b60006001600160e01b0319821663780e9d6360e01b1480610618575061061882611aaf565b6000908152606760205260409020546001600160a01b0316151590565b600081815260696020526040902080546001600160a01b0319166001600160a01b03841690811790915581906111cb82610cb4565b6001600160a01b03167f8c5be1e5ebec7d5bd14f71427d1e84f3dd0314c0f7b2291e5b200ac8c7c3b92560405160405180910390a45050565b600061120f82611179565b6112705760405162461bcd60e51b815260206004820152602c60248201527f4552433732313a206f70657261746f7220717565727920666f72206e6f6e657860448201526b34b9ba32b73a103a37b5b2b760a11b6064820152608401610718565b600061127b83610cb4565b9050806001600160a01b0316846001600160a01b031614806112b65750836001600160a01b03166112ab846106b0565b6001600160a01b0316145b806112e657506001600160a01b038082166000908152606a602090815260408083209388168352929052205460ff165b949350505050565b826001600160a01b031661130182610cb4565b6001600160a01b0316146113695760405162461bcd60e51b815260206004820152602960248201527f4552433732313a207472616e73666572206f6620746f6b656e2074686174206960448201526839903737ba1037bbb760b91b6064820152608401610718565b6001600160a01b0382166113cb5760405162461bcd60e51b8152602060048201526024808201527f4552433732313a207472616e7366657220746f20746865207a65726f206164646044820152637265737360e01b6064820152608401610718565b6113d6838383611aff565b6113e1600082611196565b6001600160a01b038316600090815260686020526040812080546001929061140a908490612ba8565b90915550506001600160a01b0382166000908152606860205260408120805460019290611438908490612b5d565b909155505060008181526067602052604080822080546001600160a01b0319166001600160a01b0386811691821790925591518493918716917fddf252ad1be2c89b69c2b068fc378daa952ba7f163c4a11628f55a4df523b3ef91a4505050565b7f360894a13ba1a3210667c828492db98dca3e2076cc3735a920a3ca505d382bbc546001600160a01b031690565b61012d546001600160a01b031633146114f25760405162461bcd60e51b815260040161071890612a8c565b604080518082019091526003808252620312e360ec1b6020909201918252610b7e91610192916124aa565b6000611527611499565b905061153284611b0a565b60008351118061153f5750815b156115505761154e8484611baf565b505b7f4910fdfa16fed3260ed0e7147f7cc6da11a60208b5b9406d12a635614ffd9143805460ff1661166157805460ff191660011781556040516001600160a01b03831660248201526115cf90869060440160408051601f198184030181529190526020810180516001600160e01b0316631b2ce7f360e11b179052611baf565b50805460ff191681556115e0611499565b6001600160a01b0316826001600160a01b0316146116585760405162461bcd60e51b815260206004820152602f60248201527f45524331393637557067726164653a207570677261646520627265616b73206660448201526e75727468657220757067726164657360881b6064820152608401610718565b61166185611c9a565b5050505050565b610b7e828260405180602001604052806000815250611cda565b61168b82611179565b6116ee5760405162461bcd60e51b815260206004820152602e60248201527f45524337323155524953746f726167653a2055524920736574206f66206e6f6e60448201526d32bc34b9ba32b73a103a37b5b2b760911b6064820152608401610718565b6000828152609760209081526040909120825161084e928401906124aa565b61012d80546001600160a01b038381166001600160a01b0319831681179093556040519116919082907f8be0079c531659141344cd1fd0a4f28419497f9722a3daafe3b4186f6b6457e090600090a35050565b600054610100900460ff166117875760405162461bcd60e51b815260040161071890612b12565b61178f611d0d565b611797611d0d565b610b7e8282611d34565b600054610100900460ff166117c85760405162461bcd60e51b815260040161071890612b12565b6117d0611d0d565b6117d8611d0d565b610de7611d0d565b600054610100900460ff166118075760405162461bcd60e51b815260040161071890612b12565b61180f611d0d565b610de7611d82565b600054610100900460ff166117d05760405162461bcd60e51b815260040161071890612b12565b816001600160a01b0316836001600160a01b031614156118a05760405162461bcd60e51b815260206004820152601960248201527f4552433732313a20617070726f766520746f2063616c6c6572000000000000006044820152606401610718565b6001600160a01b038381166000818152606a6020908152604080832094871680845294825291829020805460ff191686151590811790915591519182527f17307eab39ab6107e8899845ad3d59bd9653f200f220920489ca2b5937696c31910160405180910390a3505050565b6119188484846112ee565b61192484848484611db2565b610fce5760405162461bcd60e51b8152600401610718906129a2565b606061194b82611179565b6119b15760405162461bcd60e51b815260206004820152603160248201527f45524337323155524953746f726167653a2055524920717565727920666f72206044820152703737b732bc34b9ba32b73a103a37b5b2b760791b6064820152608401610718565b600082815260976020526040812080546119ca90612beb565b80601f01602080910402602001604051908101604052809291908181526020018280546119f690612beb565b8015611a435780601f10611a1857610100808354040283529160200191611a43565b820191906000526020600020905b815481529060010190602001808311611a2657829003601f168201915b505050505090506000611a6160408051602081019091526000815290565b9050805160001415611a74575092915050565b815115611aa6578082604051602001611a8e9291906128df565b60405160208183030381529060405292505050919050565b6112e684611ebf565b60006001600160e01b031982166380ac58cd60e01b1480611ae057506001600160e01b03198216635b5e139f60e01b145b8061061857506301ffc9a760e01b6001600160e01b0319831614610618565b61084e838383611f97565b803b611b6e5760405162461bcd60e51b815260206004820152602d60248201527f455243313936373a206e657720696d706c656d656e746174696f6e206973206e60448201526c1bdd08184818dbdb9d1c9858dd609a1b6064820152608401610718565b7f360894a13ba1a3210667c828492db98dca3e2076cc3735a920a3ca505d382bbc80546001600160a01b0319166001600160a01b0392909216919091179055565b6060823b611c0e5760405162461bcd60e51b815260206004820152602660248201527f416464726573733a2064656c65676174652063616c6c20746f206e6f6e2d636f6044820152651b9d1c9858dd60d21b6064820152608401610718565b600080846001600160a01b031684604051611c2991906128c3565b600060405180830381855af49150503d8060008114611c64576040519150601f19603f3d011682016040523d82523d6000602084013e611c69565b606091505b5091509150611c918282604051806060016040528060278152602001612d4360279139612051565b95945050505050565b611ca381611b0a565b6040516001600160a01b038216907fbc7cd75a20ee27fd9adebab32041f755214dbc6bffa90cc0225b39da2e5c2d3b90600090a250565b611ce4838361208a565b611cf16000848484611db2565b61084e5760405162461bcd60e51b8152600401610718906129a2565b600054610100900460ff16610de75760405162461bcd60e51b815260040161071890612b12565b600054610100900460ff16611d5b5760405162461bcd60e51b815260040161071890612b12565b8151611d6e9060659060208501906124aa565b50805161084e9060669060208401906124aa565b600054610100900460ff16611da95760405162461bcd60e51b815260040161071890612b12565b610de73361170d565b60006001600160a01b0384163b15611eb457604051630a85bd0160e11b81526001600160a01b0385169063150b7a0290611df690339089908890889060040161290e565b602060405180830381600087803b158015611e1057600080fd5b505af1925050508015611e40575060408051601f3d908101601f19168201909252611e3d9181019061280f565b60015b611e9a573d808015611e6e576040519150601f19603f3d011682016040523d82523d6000602084013e611e73565b606091505b508051611e925760405162461bcd60e51b8152600401610718906129a2565b805181602001fd5b6001600160e01b031916630a85bd0160e11b1490506112e6565b506001949350505050565b6060611eca82611179565b611f2e5760405162461bcd60e51b815260206004820152602f60248201527f4552433732314d657461646174613a2055524920717565727920666f72206e6f60448201526e3732bc34b9ba32b73a103a37b5b2b760891b6064820152608401610718565b6000611f4560408051602081019091526000815290565b90506000815111611f655760405180602001604052806000815250611f90565b80611f6f846121c9565b604051602001611f809291906128df565b6040516020818303038152906040525b9392505050565b6001600160a01b038316611ff457611fef816101618054600083815261016260205260408120829055600182018355919091527fafbb1c043347995df017ce3291b765e028ad5f784d2aa00c3f5e073760a4de8b0155565b612017565b816001600160a01b0316836001600160a01b0316146120175761201783826122e3565b6001600160a01b03821661202e5761084e81612385565b826001600160a01b0316826001600160a01b03161461084e5761084e8282612464565b60608315612060575081611f90565b8251156120705782518084602001fd5b8160405162461bcd60e51b8152600401610718919061298f565b6001600160a01b0382166120e05760405162461bcd60e51b815260206004820181905260248201527f4552433732313a206d696e7420746f20746865207a65726f20616464726573736044820152606401610718565b6120e981611179565b156121365760405162461bcd60e51b815260206004820152601c60248201527f4552433732313a20746f6b656e20616c7265616479206d696e746564000000006044820152606401610718565b61214260008383611aff565b6001600160a01b038216600090815260686020526040812080546001929061216b908490612b5d565b909155505060008181526067602052604080822080546001600160a01b0319166001600160a01b03861690811790915590518392907fddf252ad1be2c89b69c2b068fc378daa952ba7f163c4a11628f55a4df523b3ef908290a45050565b6060816121ed5750506040805180820190915260018152600360fc1b602082015290565b8160005b8115612217578061220181612c26565b91506122109050600a83612b75565b91506121f1565b60008167ffffffffffffffff81111561224057634e487b7160e01b600052604160045260246000fd5b6040519080825280601f01601f19166020018201604052801561226a576020820181803683370190505b5090505b84156112e65761227f600183612ba8565b915061228c600a86612c41565b612297906030612b5d565b60f81b8183815181106122ba57634e487b7160e01b600052603260045260246000fd5b60200101906001600160f81b031916908160001a9053506122dc600a86612b75565b945061226e565b600060016122f084610d2b565b6122fa9190612ba8565b60008381526101606020526040902054909150808214612350576001600160a01b038416600090815261015f60209081526040808320858452825280832054848452818420819055835261016090915290208190555b506000918252610160602090815260408084208490556001600160a01b03909416835261015f81528383209183525290812055565b6101615460009061239890600190612ba8565b6000838152610162602052604081205461016180549394509092849081106123d057634e487b7160e01b600052603260045260246000fd5b9060005260206000200154905080610161838154811061240057634e487b7160e01b600052603260045260246000fd5b6000918252602080832090910192909255828152610162909152604080822084905585825281205561016180548061244857634e487b7160e01b600052603160045260246000fd5b6001900381819060005260206000200160009055905550505050565b600061246f83610d2b565b6001600160a01b03909316600090815261015f6020908152604080832086845282528083208590559382526101609052919091209190915550565b8280546124b690612beb565b90600052602060002090601f0160209004810192826124d8576000855561251e565b82601f106124f157805160ff191683800117855561251e565b8280016001018555821561251e579182015b8281111561251e578251825591602001919060010190612503565b5061252a92915061252e565b5090565b5b8082111561252a576000815560010161252f565b80356001600160a01b038116811461255a57600080fd5b919050565b600082601f83011261256f578081fd5b813567ffffffffffffffff8082111561258a5761258a612c81565b604051601f8301601f19908116603f011681019082821181831017156125b2576125b2612c81565b816040528381528660208588010111156125ca578485fd5b8360208701602083013792830160200193909352509392505050565b6000602082840312156125f7578081fd5b611f9082612543565b60008060408385031215612612578081fd5b61261b83612543565b915061262960208401612543565b90509250929050565b600080600060608486031215612646578081fd5b61264f84612543565b925061265d60208501612543565b9150604084013590509250925092565b60008060008060808587031215612682578081fd5b61268b85612543565b935061269960208601612543565b925060408501359150606085013567ffffffffffffffff8111156126bb578182fd5b6126c78782880161255f565b91505092959194509250565b600080604083850312156126e5578182fd5b6126ee83612543565b915060208301358015158114612702578182fd5b809150509250929050565b6000806040838503121561271f578182fd5b61272883612543565b9150602083013567ffffffffffffffff811115612743578182fd5b61274f8582860161255f565b9150509250929050565b60008060006060848603121561276d578283fd5b61277684612543565b9250602084013567ffffffffffffffff80821115612792578384fd5b61279e8783880161255f565b935060408601359150808211156127b3578283fd5b506127c08682870161255f565b9150509250925092565b600080604083850312156127dc578182fd5b6127e583612543565b946020939093013593505050565b600060208284031215612804578081fd5b8135611f9081612c97565b600060208284031215612820578081fd5b8151611f9081612c97565b60006020828403121561283c578081fd5b813567ffffffffffffffff811115612852578182fd5b6112e68482850161255f565b60006020828403121561286f578081fd5b5035919050565b60008060408385031215612888578182fd5b50508035926020909101359150565b600081518084526128af816020860160208601612bbf565b601f01601f19169290920160200192915050565b600082516128d5818460208701612bbf565b9190910192915050565b600083516128f1818460208801612bbf565b835190830190612905818360208801612bbf565b01949350505050565b6001600160a01b038581168252841660208201526040810183905260806060820181905260009061294190830184612897565b9695505050505050565b6020808252825182820181905260009190848201906040850190845b8181101561298357835183529284019291840191600101612967565b50909695505050505050565b602081526000611f906020830184612897565b60208082526032908201527f4552433732313a207472616e7366657220746f206e6f6e20455243373231526560408201527131b2b4bb32b91034b6b83632b6b2b73a32b960711b606082015260800190565b6020808252602c908201527f46756e6374696f6e206d7573742062652063616c6c6564207468726f7567682060408201526b19195b1959d85d1958d85b1b60a21b606082015260800190565b6020808252602c908201527f46756e6374696f6e206d7573742062652063616c6c6564207468726f7567682060408201526b6163746976652070726f787960a01b606082015260800190565b6020808252818101527f4f776e61626c653a2063616c6c6572206973206e6f7420746865206f776e6572604082015260600190565b60208082526031908201527f4552433732313a207472616e736665722063616c6c6572206973206e6f74206f6040820152701ddb995c881b9bdc88185c1c1c9bdd9959607a1b606082015260800190565b6020808252602b908201527f496e697469616c697a61626c653a20636f6e7472616374206973206e6f74206960408201526a6e697469616c697a696e6760a81b606082015260800190565b60008219821115612b7057612b70612c55565b500190565b600082612b8457612b84612c6b565b500490565b6000816000190483118215151615612ba357612ba3612c55565b500290565b600082821015612bba57612bba612c55565b500390565b60005b83811015612bda578181015183820152602001612bc2565b83811115610fce5750506000910152565b600181811c90821680612bff57607f821691505b60208210811415612c2057634e487b7160e01b600052602260045260246000fd5b50919050565b6000600019821415612c3a57612c3a612c55565b5060010190565b600082612c5057612c50612c6b565b500690565b634e487b7160e01b600052601160045260246000fd5b634e487b7160e01b600052601260045260246000fd5b634e487b7160e01b600052604160045260246000fd5b6001600160e01b031981168114610a1457600080fdfe68747470733a2f2f666972656261736573746f726167652e676f6f676c65617069732e636f6d2f76302f622f7061792d612d766567616e2e61707073706f742e636f6d2f6f2f6e667425324663686f63686f2d636f6e74726163742e6a736f6e3f616c743d6d6564696126746f6b656e3d61653232393330612d306364372d343930632d616431302d313136346533323736636465416464726573733a206c6f772d6c6576656c2064656c65676174652063616c6c206661696c6564a2646970667358221220e6fd6de0f82a94f67fdac157de4715baf56386915d26221f0fc737d56becf4dc64736f6c63430008040033",
  "linkReferences": {},
  "deployedLinkReferences": {}
}