{
  "_format": "hh-sol-artifact-1",
  "contractName": "NFTMarketV2",
  "sourceName": "contracts/MarketV2.sol",
  "abi": [
    {
      "inputs": [],
      "stateMutability": "nonpayable",
      "type": "constructor"
    },
    {
      "anonymous": false,
      "inputs": [
        {
          "indexed": false,
          "internalType": "address",
          "name": "previousAdmin",
          "type": "address"
        },
        {
          "indexed": false,
          "internalType": "address",
          "name": "newAdmin",
          "type": "address"
        }
      ],
      "name": "AdminChanged",
      "type": "event"
    },
    {
      "anonymous": false,
      "inputs": [
        {
          "indexed": true,
          "internalType": "uint256",
          "name": "nounId",
          "type": "uint256"
        },
        {
          "indexed": false,
          "internalType": "address",
          "name": "sender",
          "type": "address"
        },
        {
          "indexed": false,
          "internalType": "uint256",
          "name": "value",
          "type": "uint256"
        },
        {
          "indexed": false,
          "internalType": "bool",
          "name": "extended",
          "type": "bool"
        }
      ],
      "name": "AuctionBid",
      "type": "event"
    },
    {
      "anonymous": false,
      "inputs": [
        {
          "indexed": true,
          "internalType": "uint256",
          "name": "nounId",
          "type": "uint256"
        },
        {
          "indexed": false,
          "internalType": "uint256",
          "name": "startTime",
          "type": "uint256"
        },
        {
          "indexed": false,
          "internalType": "uint256",
          "name": "endTime",
          "type": "uint256"
        }
      ],
      "name": "AuctionCreated",
      "type": "event"
    },
    {
      "anonymous": false,
      "inputs": [
        {
          "indexed": true,
          "internalType": "uint256",
          "name": "nounId",
          "type": "uint256"
        },
        {
          "indexed": false,
          "internalType": "uint256",
          "name": "endTime",
          "type": "uint256"
        }
      ],
      "name": "AuctionExtended",
      "type": "event"
    },
    {
      "anonymous": false,
      "inputs": [
        {
          "indexed": false,
          "internalType": "uint256",
          "name": "minBidIncrementPercentage",
          "type": "uint256"
        }
      ],
      "name": "AuctionMinBidIncrementPercentageUpdated",
      "type": "event"
    },
    {
      "anonymous": false,
      "inputs": [
        {
          "indexed": false,
          "internalType": "uint256",
          "name": "reservePrice",
          "type": "uint256"
        }
      ],
      "name": "AuctionReservePriceUpdated",
      "type": "event"
    },
    {
      "anonymous": false,
      "inputs": [
        {
          "indexed": true,
          "internalType": "uint256",
          "name": "nounId",
          "type": "uint256"
        },
        {
          "indexed": false,
          "internalType": "address",
          "name": "winner",
          "type": "address"
        },
        {
          "indexed": false,
          "internalType": "uint256",
          "name": "amount",
          "type": "uint256"
        }
      ],
      "name": "AuctionSettled",
      "type": "event"
    },
    {
      "anonymous": false,
      "inputs": [
        {
          "indexed": false,
          "internalType": "uint256",
          "name": "timeBuffer",
          "type": "uint256"
        }
      ],
      "name": "AuctionTimeBufferUpdated",
      "type": "event"
    },
    {
      "anonymous": false,
      "inputs": [
        {
          "indexed": true,
          "internalType": "address",
          "name": "beacon",
          "type": "address"
        }
      ],
      "name": "BeaconUpgraded",
      "type": "event"
    },
    {
      "anonymous": false,
      "inputs": [
        {
          "indexed": true,
          "internalType": "uint256",
          "name": "itemId",
          "type": "uint256"
        },
        {
          "indexed": true,
          "internalType": "address",
          "name": "nftContract",
          "type": "address"
        },
        {
          "indexed": true,
          "internalType": "uint256",
          "name": "tokenId",
          "type": "uint256"
        },
        {
          "indexed": false,
          "internalType": "address",
          "name": "seller",
          "type": "address"
        },
        {
          "indexed": false,
          "internalType": "address",
          "name": "owner",
          "type": "address"
        },
        {
          "indexed": false,
          "internalType": "uint256",
          "name": "price",
          "type": "uint256"
        },
        {
          "indexed": false,
          "internalType": "bool",
          "name": "sold",
          "type": "bool"
        },
        {
          "indexed": false,
          "internalType": "bool",
          "name": "auction",
          "type": "bool"
        }
      ],
      "name": "MarketItemCreated",
      "type": "event"
    },
    {
      "anonymous": false,
      "inputs": [
        {
          "indexed": true,
          "internalType": "address",
          "name": "previousOwner",
          "type": "address"
        },
        {
          "indexed": true,
          "internalType": "address",
          "name": "newOwner",
          "type": "address"
        }
      ],
      "name": "OwnershipTransferred",
      "type": "event"
    },
    {
      "anonymous": false,
      "inputs": [
        {
          "indexed": true,
          "internalType": "address",
          "name": "implementation",
          "type": "address"
        }
      ],
      "name": "Upgraded",
      "type": "event"
    },
    {
      "inputs": [],
      "name": "auction",
      "outputs": [
        {
          "internalType": "uint256",
          "name": "nounId",
          "type": "uint256"
        },
        {
          "internalType": "uint256",
          "name": "amount",
          "type": "uint256"
        },
        {
          "internalType": "uint256",
          "name": "startTime",
          "type": "uint256"
        },
        {
          "internalType": "uint256",
          "name": "endTime",
          "type": "uint256"
        },
        {
          "internalType": "address payable",
          "name": "bidder",
          "type": "address"
        },
        {
          "internalType": "bool",
          "name": "settled",
          "type": "bool"
        }
      ],
      "stateMutability": "view",
      "type": "function"
    },
    {
      "inputs": [
        {
          "internalType": "address",
          "name": "nftContract",
          "type": "address"
        },
        {
          "internalType": "uint256",
          "name": "itemId",
          "type": "uint256"
        }
      ],
      "name": "createAuction",
      "outputs": [],
      "stateMutability": "payable",
      "type": "function"
    },
    {
      "inputs": [
        {
          "internalType": "address",
          "name": "nftContract",
          "type": "address"
        },
        {
          "internalType": "uint256",
          "name": "tokenId",
          "type": "uint256"
        },
        {
          "internalType": "uint256",
          "name": "price",
          "type": "uint256"
        }
      ],
      "name": "createMarketItem",
      "outputs": [],
      "stateMutability": "payable",
      "type": "function"
    },
    {
      "inputs": [
        {
          "internalType": "address",
          "name": "nftContract",
          "type": "address"
        },
        {
          "internalType": "uint256",
          "name": "itemId",
          "type": "uint256"
        }
      ],
      "name": "createMarketSale",
      "outputs": [],
      "stateMutability": "payable",
      "type": "function"
    },
    {
      "inputs": [],
      "name": "duration",
      "outputs": [
        {
          "internalType": "uint256",
          "name": "",
          "type": "uint256"
        }
      ],
      "stateMutability": "view",
      "type": "function"
    },
    {
      "inputs": [],
      "name": "fetchItemsCreated",
      "outputs": [
        {
          "components": [
            {
              "internalType": "uint256",
              "name": "itemId",
              "type": "uint256"
            },
            {
              "internalType": "address",
              "name": "nftContract",
              "type": "address"
            },
            {
              "internalType": "uint256",
              "name": "tokenId",
              "type": "uint256"
            },
            {
              "internalType": "address payable",
              "name": "seller",
              "type": "address"
            },
            {
              "internalType": "address payable",
              "name": "owner",
              "type": "address"
            },
            {
              "internalType": "uint256",
              "name": "price",
              "type": "uint256"
            },
            {
              "internalType": "bool",
              "name": "sold",
              "type": "bool"
            },
            {
              "internalType": "bool",
              "name": "auction",
              "type": "bool"
            },
            {
              "internalType": "uint256",
              "name": "startTime",
              "type": "uint256"
            },
            {
              "internalType": "uint256",
              "name": "endTime",
              "type": "uint256"
            }
          ],
          "internalType": "struct NFTMarketV2.MarketItem[]",
          "name": "",
          "type": "tuple[]"
        }
      ],
      "stateMutability": "view",
      "type": "function"
    },
    {
      "inputs": [],
      "name": "fetchMarketItems",
      "outputs": [
        {
          "components": [
            {
              "internalType": "uint256",
              "name": "itemId",
              "type": "uint256"
            },
            {
              "internalType": "address",
              "name": "nftContract",
              "type": "address"
            },
            {
              "internalType": "uint256",
              "name": "tokenId",
              "type": "uint256"
            },
            {
              "internalType": "address payable",
              "name": "seller",
              "type": "address"
            },
            {
              "internalType": "address payable",
              "name": "owner",
              "type": "address"
            },
            {
              "internalType": "uint256",
              "name": "price",
              "type": "uint256"
            },
            {
              "internalType": "bool",
              "name": "sold",
              "type": "bool"
            },
            {
              "internalType": "bool",
              "name": "auction",
              "type": "bool"
            },
            {
              "internalType": "uint256",
              "name": "startTime",
              "type": "uint256"
            },
            {
              "internalType": "uint256",
              "name": "endTime",
              "type": "uint256"
            }
          ],
          "internalType": "struct NFTMarketV2.MarketItem[]",
          "name": "",
          "type": "tuple[]"
        }
      ],
      "stateMutability": "view",
      "type": "function"
    },
    {
      "inputs": [],
      "name": "fetchMyNFTs",
      "outputs": [
        {
          "components": [
            {
              "internalType": "uint256",
              "name": "itemId",
              "type": "uint256"
            },
            {
              "internalType": "address",
              "name": "nftContract",
              "type": "address"
            },
            {
              "internalType": "uint256",
              "name": "tokenId",
              "type": "uint256"
            },
            {
              "internalType": "address payable",
              "name": "seller",
              "type": "address"
            },
            {
              "internalType": "address payable",
              "name": "owner",
              "type": "address"
            },
            {
              "internalType": "uint256",
              "name": "price",
              "type": "uint256"
            },
            {
              "internalType": "bool",
              "name": "sold",
              "type": "bool"
            },
            {
              "internalType": "bool",
              "name": "auction",
              "type": "bool"
            },
            {
              "internalType": "uint256",
              "name": "startTime",
              "type": "uint256"
            },
            {
              "internalType": "uint256",
              "name": "endTime",
              "type": "uint256"
            }
          ],
          "internalType": "struct NFTMarketV2.MarketItem[]",
          "name": "",
          "type": "tuple[]"
        }
      ],
      "stateMutability": "view",
      "type": "function"
    },
    {
      "inputs": [],
      "name": "getListingPrice",
      "outputs": [
        {
          "internalType": "uint256",
          "name": "",
          "type": "uint256"
        }
      ],
      "stateMutability": "view",
      "type": "function"
    },
    {
      "inputs": [],
      "name": "minBidIncrementPercentage",
      "outputs": [
        {
          "internalType": "uint8",
          "name": "",
          "type": "uint8"
        }
      ],
      "stateMutability": "view",
      "type": "function"
    },
    {
      "inputs": [],
      "name": "owner",
      "outputs": [
        {
          "internalType": "address",
          "name": "",
          "type": "address"
        }
      ],
      "stateMutability": "view",
      "type": "function"
    },
    {
      "inputs": [],
      "name": "renounceOwnership",
      "outputs": [],
      "stateMutability": "nonpayable",
      "type": "function"
    },
    {
      "inputs": [
        {
          "internalType": "address",
          "name": "newOwner",
          "type": "address"
        }
      ],
      "name": "transferOwnership",
      "outputs": [],
      "stateMutability": "nonpayable",
      "type": "function"
    },
    {
      "inputs": [
        {
          "internalType": "address",
          "name": "newImplementation",
          "type": "address"
        }
      ],
      "name": "upgradeTo",
      "outputs": [],
      "stateMutability": "nonpayable",
      "type": "function"
    },
    {
      "inputs": [
        {
          "internalType": "address",
          "name": "newImplementation",
          "type": "address"
        },
        {
          "internalType": "bytes",
          "name": "data",
          "type": "bytes"
        }
      ],
      "name": "upgradeToAndCall",
      "outputs": [],
      "stateMutability": "payable",
      "type": "function"
    },
    {
      "inputs": [],
      "name": "version",
      "outputs": [
        {
          "internalType": "string",
          "name": "",
          "type": "string"
        }
      ],
      "stateMutability": "view",
      "type": "function"
    }
  ],
  "bytecode": "0x60a06040523060601b6080523480156200001857600080fd5b50600054610100900460ff16620000365760005460ff161562000040565b62000040620000e5565b620000a85760405162461bcd60e51b815260206004820152602e60248201527f496e697469616c697a61626c653a20636f6e747261637420697320616c72656160448201526d191e481a5b9a5d1a585b1a5e995960921b606482015260840160405180910390fd5b600054610100900460ff16158015620000cb576000805461ffff19166101011790555b8015620000de576000805461ff00191690555b5062000109565b6000620000fd306200010360201b6200134b1760201c565b15905090565b3b151590565b60805160601c611d606200013d600039600081816107050152818161074e015281816107d701526108170152611d606000f3fe6080604052600436106100f35760003560e01c8063715018a61161008a578063c23b139e11610059578063c23b139e146102be578063f064c32e146102d1578063f2fde38b146102e6578063f7e882981461030657600080fd5b8063715018a6146101db5780637d9f6db5146101f05780638da5cb5b14610269578063b296024d1461029157600080fd5b80633659cfe6116100c65780633659cfe6146101715780634f1ef2861461019357806354fd4d50146101a657806358eb2df5146101c857600080fd5b80630f08efe0146100f85780630fb5a6b41461012357806312e8558514610147578063202e37401461015c575b600080fd5b34801561010457600080fd5b5061010d610319565b60405161011a91906119f5565b60405180910390f35b34801561012f57600080fd5b5061013960fe5481565b60405190815260200161011a565b34801561015357600080fd5b5060fd54610139565b34801561016857600080fd5b5061010d6104ea565b34801561017d57600080fd5b5061019161018c3660046118a7565b6106fa565b005b6101916101a13660046118c1565b6107cc565b3480156101b257600080fd5b506101bb610886565b60405161011a9190611aac565b6101916101d63660046119a7565b610914565b3480156101e757600080fd5b50610191610c66565b3480156101fc57600080fd5b50610101546101025461010354610104546101055461023194939291906001600160a01b03811690600160a01b900460ff1686565b6040805196875260208701959095529385019290925260608401526001600160a01b03166080830152151560a082015260c00161011a565b34801561027557600080fd5b5060c9546040516001600160a01b03909116815260200161011a565b34801561029d57600080fd5b50610100546102ac9060ff1681565b60405160ff909116815260200161011a565b6101916102cc36600461197e565b610c9c565b3480156102dd57600080fd5b5061010d61102b565b3480156102f257600080fd5b506101916103013660046118a7565b61123b565b61019161031436600461197e565b6112d3565b6060600061032660fb5490565b9050600061033360fc5490565b60fb546103409190611c3a565b90506000808267ffffffffffffffff81111561036c57634e487b7160e01b600052604160045260246000fd5b6040519080825280602002602001820160405280156103a557816020015b610392611780565b81526020019060019003908161038a5790505b50905060005b848110156104e1576000610106816103c4846001611be3565b81526020810191909152604001600020600401546001600160a01b031614156104cf5760006103f4826001611be3565b600081815261010660209081526040918290208251610140810184528154815260018201546001600160a01b039081169382019390935260028201549381019390935260038101548216606084015260048101549091166080830152600581015460a0830152600681015460ff808216151560c08501526101009182900416151560e084015260078201549083015260088101546101208301528551929350918590879081106104b457634e487b7160e01b600052603260045260246000fd5b60209081029190910101526104ca600186611be3565b945050505b806104d981611cbc565b9150506103ab565b50949350505050565b606060006104f760fb5490565b905060008060005b8381101561055b57336101066000610518846001611be3565b81526020810191909152604001600020600401546001600160a01b0316141561054957610546600184611be3565b92505b8061055381611cbc565b9150506104ff565b5060008267ffffffffffffffff81111561058557634e487b7160e01b600052604160045260246000fd5b6040519080825280602002602001820160405280156105be57816020015b6105ab611780565b8152602001906001900390816105a35790505b50905060005b848110156104e1573361010660006105dd846001611be3565b81526020810191909152604001600020600401546001600160a01b031614156106e857600061060d826001611be3565b600081815261010660209081526040918290208251610140810184528154815260018201546001600160a01b039081169382019390935260028201549381019390935260038101548216606084015260048101549091166080830152600581015460a0830152600681015460ff808216151560c08501526101009182900416151560e084015260078201549083015260088101546101208301528551929350918590879081106106cd57634e487b7160e01b600052603260045260246000fd5b60209081029190910101526106e3600186611be3565b945050505b806106f281611cbc565b9150506105c4565b306001600160a01b037f000000000000000000000000000000000000000000000000000000000000000016141561074c5760405162461bcd60e51b815260040161074390611adf565b60405180910390fd5b7f00000000000000000000000000000000000000000000000000000000000000006001600160a01b031661077e611351565b6001600160a01b0316146107a45760405162461bcd60e51b815260040161074390611b2b565b6107ad8161137f565b604080516000808252602082019092526107c9918391906113d3565b50565b306001600160a01b037f00000000000000000000000000000000000000000000000000000000000000001614156108155760405162461bcd60e51b815260040161074390611adf565b7f00000000000000000000000000000000000000000000000000000000000000006001600160a01b0316610847611351565b6001600160a01b03161461086d5760405162461bcd60e51b815260040161074390611b2b565b6108768261137f565b610882828260016113d3565b5050565b60ff805461089390611c81565b80601f01602080910402602001604051908101604052809291908181526020018280546108bf90611c81565b801561090c5780601f106108e15761010080835404028352916020019161090c565b820191906000526020600020905b8154815290600101906020018083116108ef57829003601f168201915b505050505081565b600260015414156109375760405162461bcd60e51b815260040161074390611bac565b6002600155806109895760405162461bcd60e51b815260206004820152601c60248201527f5072696365206d757374206265206174206c65617374203120776569000000006044820152606401610743565b60fd5434146109e65760405162461bcd60e51b8152602060048201526024808201527f5072696365206d75737420626520657175616c20746f206c697374696e6720706044820152637269636560e01b6064820152608401610743565b6109f460fb80546001019055565b60006109ff60fb5490565b9050604051806101400160405280828152602001856001600160a01b03168152602001848152602001336001600160a01b0316815260200160006001600160a01b0316815260200183815260200160001515815260200160001515815260200160008152602001600081525061010660008381526020019081526020016000206000820151816000015560208201518160010160006101000a8154816001600160a01b0302191690836001600160a01b031602179055506040820151816002015560608201518160030160006101000a8154816001600160a01b0302191690836001600160a01b0316021790555060808201518160040160006101000a8154816001600160a01b0302191690836001600160a01b0316021790555060a0820151816005015560c08201518160060160006101000a81548160ff02191690831515021790555060e08201518160060160016101000a81548160ff02191690831515021790555061010082015181600701556101208201518160080155905050836001600160a01b03166323b872dd3330866040518463ffffffff1660e01b8152600401610bcc939291906001600160a01b039384168152919092166020820152604081019190915260600190565b600060405180830381600087803b158015610be657600080fd5b505af1158015610bfa573d6000803e3d6000fd5b50506040805133815260006020820181905281830187905260608201819052608082015290518693506001600160a01b038816925084917fc99151f4453170a67bc7441775fde1a3bc3220c06645df1121e703aab5e7da5d919081900360a00190a45050600180555050565b60c9546001600160a01b03163314610c905760405162461bcd60e51b815260040161074390611b77565b610c9a600061151e565b565b60026001541415610cbf5760405162461bcd60e51b815260040161074390611bac565b6002600181905560008281526101066020818152604080842060058101549581015460089091015482518085018290527f3a2041756374696f6e20686173206e6f74207374617274656420796574000000818501528351603d818303018152605d909101909352948790529290915290918190610d4f5760405162461bcd60e51b81526004016107439190611aac565b50600084815261010660208181526040808420600801548151808401829052700e88105d58dd1a5bdb88195e1c1a5c9959607a1b81840152825160318183030181526051909101909252938890529190529081904210610dc25760405162461bcd60e51b81526004016107439190611aac565b506040805160c08101825261010154815261010254602082018190526101035492820192909252610104546060820152610105546001600160a01b038116608083015260ff600160a01b9091048116151560a0830152610100549192606492610e2c921690611c1b565b610e369190611bfb565b8160200151610e459190611be3565b341015610ebc576040805162461bcd60e51b81526020600482015260248101919091527f4d7573742073656e64206d6f7265207468616e206c617374206269642062792060448201527f6d696e426964496e6372656d656e7450657263656e7461676520616d6f756e746064820152608401610743565b3461010281905561010580546001600160a01b03191633179055600087815261010660205260408082206003015490516001600160a01b03919091169280156108fc0292909190818181858888f19350505050158015610f20573d6000803e3d6000fd5b506040516323b872dd60e01b8152306004820152336024820152604481018590526001600160a01b038816906323b872dd90606401600060405180830381600087803b158015610f6f57600080fd5b505af1158015610f83573d6000803e3d6000fd5b5050506000878152610106602052604090206004810180546001600160a01b03191633179055600601805461ffff1916600117905550610fc760fc80546001019055565b60c95460fd546040516001600160a01b039092169181156108fc0291906000818181858888f19350505050158015611003573d6000803e3d6000fd5b50600061100f60fc5490565b60fb5461101c9190611c3a565b50506001805550505050505050565b6060600061103860fb5490565b905060008060005b8381101561109c57336101066000611059846001611be3565b81526020810191909152604001600020600301546001600160a01b0316141561108a57611087600184611be3565b92505b8061109481611cbc565b915050611040565b5060008267ffffffffffffffff8111156110c657634e487b7160e01b600052604160045260246000fd5b6040519080825280602002602001820160405280156110ff57816020015b6110ec611780565b8152602001906001900390816110e45790505b50905060005b848110156104e15733610106600061111e846001611be3565b81526020810191909152604001600020600301546001600160a01b0316141561122957600061114e826001611be3565b600081815261010660209081526040918290208251610140810184528154815260018201546001600160a01b039081169382019390935260028201549381019390935260038101548216606084015260048101549091166080830152600581015460a0830152600681015460ff808216151560c08501526101009182900416151560e0840152600782015490830152600881015461012083015285519293509185908790811061120e57634e487b7160e01b600052603260045260246000fd5b6020908102919091010152611224600186611be3565b945050505b8061123381611cbc565b915050611105565b60c9546001600160a01b031633146112655760405162461bcd60e51b815260040161074390611b77565b6001600160a01b0381166112ca5760405162461bcd60e51b815260206004820152602660248201527f4f776e61626c653a206e6577206f776e657220697320746865207a65726f206160448201526564647265737360d01b6064820152608401610743565b6107c98161151e565b600260015414156112f65760405162461bcd60e51b815260040161074390611bac565b600260015560008181526101066020526040902060068101805461ff00191661010017905542600790910181905560fe5461133091611be3565b60009182526101066020526040909120600801555060018055565b3b151590565b7f360894a13ba1a3210667c828492db98dca3e2076cc3735a920a3ca505d382bbc546001600160a01b031690565b60c9546001600160a01b031633146113a95760405162461bcd60e51b815260040161074390611b77565b604080518082019091526003808252620322e360ec1b60209092019182526108829160ff916117f2565b60006113dd611351565b90506113e884611570565b6000835111806113f55750815b15611406576114048484611615565b505b7f4910fdfa16fed3260ed0e7147f7cc6da11a60208b5b9406d12a635614ffd9143805460ff1661151757805460ff191660011781556040516001600160a01b038316602482015261148590869060440160408051601f198184030181529190526020810180516001600160e01b0316631b2ce7f360e11b179052611615565b50805460ff19168155611496611351565b6001600160a01b0316826001600160a01b03161461150e5760405162461bcd60e51b815260206004820152602f60248201527f45524331393637557067726164653a207570677261646520627265616b73206660448201526e75727468657220757067726164657360881b6064820152608401610743565b61151785611700565b5050505050565b60c980546001600160a01b038381166001600160a01b0319831681179093556040519116919082907f8be0079c531659141344cd1fd0a4f28419497f9722a3daafe3b4186f6b6457e090600090a35050565b803b6115d45760405162461bcd60e51b815260206004820152602d60248201527f455243313936373a206e657720696d706c656d656e746174696f6e206973206e60448201526c1bdd08184818dbdb9d1c9858dd609a1b6064820152608401610743565b7f360894a13ba1a3210667c828492db98dca3e2076cc3735a920a3ca505d382bbc80546001600160a01b0319166001600160a01b0392909216919091179055565b6060823b6116745760405162461bcd60e51b815260206004820152602660248201527f416464726573733a2064656c65676174652063616c6c20746f206e6f6e2d636f6044820152651b9d1c9858dd60d21b6064820152608401610743565b600080846001600160a01b03168460405161168f91906119d9565b600060405180830381855af49150503d80600081146116ca576040519150601f19603f3d011682016040523d82523d6000602084013e6116cf565b606091505b50915091506116f78282604051806060016040528060278152602001611d0460279139611740565b95945050505050565b61170981611570565b6040516001600160a01b038216907fbc7cd75a20ee27fd9adebab32041f755214dbc6bffa90cc0225b39da2e5c2d3b90600090a250565b6060831561174f575081611779565b82511561175f5782518084602001fd5b8160405162461bcd60e51b81526004016107439190611aac565b9392505050565b6040518061014001604052806000815260200160006001600160a01b031681526020016000815260200160006001600160a01b0316815260200160006001600160a01b031681526020016000815260200160001515815260200160001515815260200160008152602001600081525090565b8280546117fe90611c81565b90600052602060002090601f0160209004810192826118205760008555611866565b82601f1061183957805160ff1916838001178555611866565b82800160010185558215611866579182015b8281111561186657825182559160200191906001019061184b565b50611872929150611876565b5090565b5b808211156118725760008155600101611877565b80356001600160a01b03811681146118a257600080fd5b919050565b6000602082840312156118b8578081fd5b6117798261188b565b600080604083850312156118d3578081fd5b6118dc8361188b565b9150602083013567ffffffffffffffff808211156118f8578283fd5b818501915085601f83011261190b578283fd5b81358181111561191d5761191d611ced565b604051601f8201601f19908116603f0116810190838211818310171561194557611945611ced565b8160405282815288602084870101111561195d578586fd5b82602086016020830137856020848301015280955050505050509250929050565b60008060408385031215611990578182fd5b6119998361188b565b946020939093013593505050565b6000806000606084860312156119bb578081fd5b6119c48461188b565b95602085013595506040909401359392505050565b600082516119eb818460208701611c51565b9190910192915050565b602080825282518282018190526000919060409081850190868401855b82811015611a9f57815180518552868101516001600160a01b039081168887015286820151878701526060808301518216908701526080808301519091169086015260a0808201519086015260c08082015115159086015260e080820151151590860152610100808201519086015261012090810151908501526101409093019290850190600101611a12565b5091979650505050505050565b6020815260008251806020840152611acb816040850160208701611c51565b601f01601f19169190910160400192915050565b6020808252602c908201527f46756e6374696f6e206d7573742062652063616c6c6564207468726f7567682060408201526b19195b1959d85d1958d85b1b60a21b606082015260800190565b6020808252602c908201527f46756e6374696f6e206d7573742062652063616c6c6564207468726f7567682060408201526b6163746976652070726f787960a01b606082015260800190565b6020808252818101527f4f776e61626c653a2063616c6c6572206973206e6f7420746865206f776e6572604082015260600190565b6020808252601f908201527f5265656e7472616e637947756172643a207265656e7472616e742063616c6c00604082015260600190565b60008219821115611bf657611bf6611cd7565b500190565b600082611c1657634e487b7160e01b81526012600452602481fd5b500490565b6000816000190483118215151615611c3557611c35611cd7565b500290565b600082821015611c4c57611c4c611cd7565b500390565b60005b83811015611c6c578181015183820152602001611c54565b83811115611c7b576000848401525b50505050565b600181811c90821680611c9557607f821691505b60208210811415611cb657634e487b7160e01b600052602260045260246000fd5b50919050565b6000600019821415611cd057611cd0611cd7565b5060010190565b634e487b7160e01b600052601160045260246000fd5b634e487b7160e01b600052604160045260246000fdfe416464726573733a206c6f772d6c6576656c2064656c65676174652063616c6c206661696c6564a2646970667358221220404e90cfd507e82017bdb80e9ca9ae5ada6a0fdf1af411d0f11c84d42feebf5a64736f6c63430008040033",
  "linkReferences": {},
  "deployedLinkReferences": {}
}