{
  "_format": "hh-sol-artifact-1",
  "contractName": "NFTMarket",
  "sourceName": "contracts/Market.sol",
  "abi": [
    {
      "inputs": [],
      "stateMutability": "nonpayable",
      "type": "constructor"
    },
    {
      "anonymous": false,
      "inputs": [
        {
          "indexed": false,
          "internalType": "address",
          "name": "previousAdmin",
          "type": "address"
        },
        {
          "indexed": false,
          "internalType": "address",
          "name": "newAdmin",
          "type": "address"
        }
      ],
      "name": "AdminChanged",
      "type": "event"
    },
    {
      "anonymous": false,
      "inputs": [
        {
          "indexed": true,
          "internalType": "uint256",
          "name": "nounId",
          "type": "uint256"
        },
        {
          "indexed": false,
          "internalType": "address",
          "name": "sender",
          "type": "address"
        },
        {
          "indexed": false,
          "internalType": "uint256",
          "name": "value",
          "type": "uint256"
        },
        {
          "indexed": false,
          "internalType": "bool",
          "name": "extended",
          "type": "bool"
        }
      ],
      "name": "AuctionBid",
      "type": "event"
    },
    {
      "anonymous": false,
      "inputs": [
        {
          "indexed": true,
          "internalType": "uint256",
          "name": "nounId",
          "type": "uint256"
        },
        {
          "indexed": false,
          "internalType": "uint256",
          "name": "startTime",
          "type": "uint256"
        },
        {
          "indexed": false,
          "internalType": "uint256",
          "name": "endTime",
          "type": "uint256"
        }
      ],
      "name": "AuctionCreated",
      "type": "event"
    },
    {
      "anonymous": false,
      "inputs": [
        {
          "indexed": true,
          "internalType": "uint256",
          "name": "nounId",
          "type": "uint256"
        },
        {
          "indexed": false,
          "internalType": "uint256",
          "name": "endTime",
          "type": "uint256"
        }
      ],
      "name": "AuctionExtended",
      "type": "event"
    },
    {
      "anonymous": false,
      "inputs": [
        {
          "indexed": false,
          "internalType": "uint256",
          "name": "minBidIncrementPercentage",
          "type": "uint256"
        }
      ],
      "name": "AuctionMinBidIncrementPercentageUpdated",
      "type": "event"
    },
    {
      "anonymous": false,
      "inputs": [
        {
          "indexed": false,
          "internalType": "uint256",
          "name": "reservePrice",
          "type": "uint256"
        }
      ],
      "name": "AuctionReservePriceUpdated",
      "type": "event"
    },
    {
      "anonymous": false,
      "inputs": [
        {
          "indexed": true,
          "internalType": "uint256",
          "name": "nounId",
          "type": "uint256"
        },
        {
          "indexed": false,
          "internalType": "address",
          "name": "winner",
          "type": "address"
        },
        {
          "indexed": false,
          "internalType": "uint256",
          "name": "amount",
          "type": "uint256"
        }
      ],
      "name": "AuctionSettled",
      "type": "event"
    },
    {
      "anonymous": false,
      "inputs": [
        {
          "indexed": false,
          "internalType": "uint256",
          "name": "timeBuffer",
          "type": "uint256"
        }
      ],
      "name": "AuctionTimeBufferUpdated",
      "type": "event"
    },
    {
      "anonymous": false,
      "inputs": [
        {
          "indexed": true,
          "internalType": "address",
          "name": "beacon",
          "type": "address"
        }
      ],
      "name": "BeaconUpgraded",
      "type": "event"
    },
    {
      "anonymous": false,
      "inputs": [
        {
          "indexed": true,
          "internalType": "uint256",
          "name": "itemId",
          "type": "uint256"
        },
        {
          "indexed": true,
          "internalType": "address",
          "name": "nftContract",
          "type": "address"
        },
        {
          "indexed": true,
          "internalType": "uint256",
          "name": "tokenId",
          "type": "uint256"
        },
        {
          "indexed": false,
          "internalType": "address",
          "name": "seller",
          "type": "address"
        },
        {
          "indexed": false,
          "internalType": "address",
          "name": "owner",
          "type": "address"
        },
        {
          "indexed": false,
          "internalType": "uint256",
          "name": "price",
          "type": "uint256"
        },
        {
          "indexed": false,
          "internalType": "bool",
          "name": "sold",
          "type": "bool"
        },
        {
          "indexed": false,
          "internalType": "bool",
          "name": "auction",
          "type": "bool"
        }
      ],
      "name": "MarketItemCreated",
      "type": "event"
    },
    {
      "anonymous": false,
      "inputs": [
        {
          "indexed": true,
          "internalType": "address",
          "name": "previousOwner",
          "type": "address"
        },
        {
          "indexed": true,
          "internalType": "address",
          "name": "newOwner",
          "type": "address"
        }
      ],
      "name": "OwnershipTransferred",
      "type": "event"
    },
    {
      "anonymous": false,
      "inputs": [
        {
          "indexed": true,
          "internalType": "address",
          "name": "implementation",
          "type": "address"
        }
      ],
      "name": "Upgraded",
      "type": "event"
    },
    {
      "inputs": [],
      "name": "auction",
      "outputs": [
        {
          "internalType": "uint256",
          "name": "nounId",
          "type": "uint256"
        },
        {
          "internalType": "uint256",
          "name": "amount",
          "type": "uint256"
        },
        {
          "internalType": "uint256",
          "name": "startTime",
          "type": "uint256"
        },
        {
          "internalType": "uint256",
          "name": "endTime",
          "type": "uint256"
        },
        {
          "internalType": "address payable",
          "name": "bidder",
          "type": "address"
        },
        {
          "internalType": "bool",
          "name": "settled",
          "type": "bool"
        }
      ],
      "stateMutability": "view",
      "type": "function"
    },
    {
      "inputs": [
        {
          "internalType": "address",
          "name": "nftContract",
          "type": "address"
        },
        {
          "internalType": "uint256",
          "name": "itemId",
          "type": "uint256"
        }
      ],
      "name": "createAuction",
      "outputs": [],
      "stateMutability": "payable",
      "type": "function"
    },
    {
      "inputs": [
        {
          "internalType": "address",
          "name": "nftContract",
          "type": "address"
        },
        {
          "internalType": "uint256",
          "name": "tokenId",
          "type": "uint256"
        },
        {
          "internalType": "uint256",
          "name": "price",
          "type": "uint256"
        }
      ],
      "name": "createMarketItem",
      "outputs": [],
      "stateMutability": "payable",
      "type": "function"
    },
    {
      "inputs": [
        {
          "internalType": "address",
          "name": "nftContract",
          "type": "address"
        },
        {
          "internalType": "uint256",
          "name": "itemId",
          "type": "uint256"
        }
      ],
      "name": "createMarketSale",
      "outputs": [],
      "stateMutability": "payable",
      "type": "function"
    },
    {
      "inputs": [],
      "name": "duration",
      "outputs": [
        {
          "internalType": "uint256",
          "name": "",
          "type": "uint256"
        }
      ],
      "stateMutability": "view",
      "type": "function"
    },
    {
      "inputs": [],
      "name": "fetchItemsCreated",
      "outputs": [
        {
          "components": [
            {
              "internalType": "uint256",
              "name": "itemId",
              "type": "uint256"
            },
            {
              "internalType": "address",
              "name": "nftContract",
              "type": "address"
            },
            {
              "internalType": "uint256",
              "name": "tokenId",
              "type": "uint256"
            },
            {
              "internalType": "address payable",
              "name": "seller",
              "type": "address"
            },
            {
              "internalType": "address payable",
              "name": "owner",
              "type": "address"
            },
            {
              "internalType": "uint256",
              "name": "price",
              "type": "uint256"
            },
            {
              "internalType": "bool",
              "name": "sold",
              "type": "bool"
            },
            {
              "internalType": "bool",
              "name": "auction",
              "type": "bool"
            },
            {
              "internalType": "uint256",
              "name": "startTime",
              "type": "uint256"
            },
            {
              "internalType": "uint256",
              "name": "endTime",
              "type": "uint256"
            }
          ],
          "internalType": "struct NFTMarket.MarketItem[]",
          "name": "",
          "type": "tuple[]"
        }
      ],
      "stateMutability": "view",
      "type": "function"
    },
    {
      "inputs": [],
      "name": "fetchMarketItems",
      "outputs": [
        {
          "components": [
            {
              "internalType": "uint256",
              "name": "itemId",
              "type": "uint256"
            },
            {
              "internalType": "address",
              "name": "nftContract",
              "type": "address"
            },
            {
              "internalType": "uint256",
              "name": "tokenId",
              "type": "uint256"
            },
            {
              "internalType": "address payable",
              "name": "seller",
              "type": "address"
            },
            {
              "internalType": "address payable",
              "name": "owner",
              "type": "address"
            },
            {
              "internalType": "uint256",
              "name": "price",
              "type": "uint256"
            },
            {
              "internalType": "bool",
              "name": "sold",
              "type": "bool"
            },
            {
              "internalType": "bool",
              "name": "auction",
              "type": "bool"
            },
            {
              "internalType": "uint256",
              "name": "startTime",
              "type": "uint256"
            },
            {
              "internalType": "uint256",
              "name": "endTime",
              "type": "uint256"
            }
          ],
          "internalType": "struct NFTMarket.MarketItem[]",
          "name": "",
          "type": "tuple[]"
        }
      ],
      "stateMutability": "view",
      "type": "function"
    },
    {
      "inputs": [],
      "name": "fetchMyNFTs",
      "outputs": [
        {
          "components": [
            {
              "internalType": "uint256",
              "name": "itemId",
              "type": "uint256"
            },
            {
              "internalType": "address",
              "name": "nftContract",
              "type": "address"
            },
            {
              "internalType": "uint256",
              "name": "tokenId",
              "type": "uint256"
            },
            {
              "internalType": "address payable",
              "name": "seller",
              "type": "address"
            },
            {
              "internalType": "address payable",
              "name": "owner",
              "type": "address"
            },
            {
              "internalType": "uint256",
              "name": "price",
              "type": "uint256"
            },
            {
              "internalType": "bool",
              "name": "sold",
              "type": "bool"
            },
            {
              "internalType": "bool",
              "name": "auction",
              "type": "bool"
            },
            {
              "internalType": "uint256",
              "name": "startTime",
              "type": "uint256"
            },
            {
              "internalType": "uint256",
              "name": "endTime",
              "type": "uint256"
            }
          ],
          "internalType": "struct NFTMarket.MarketItem[]",
          "name": "",
          "type": "tuple[]"
        }
      ],
      "stateMutability": "view",
      "type": "function"
    },
    {
      "inputs": [],
      "name": "getListingPrice",
      "outputs": [
        {
          "internalType": "uint256",
          "name": "",
          "type": "uint256"
        }
      ],
      "stateMutability": "view",
      "type": "function"
    },
    {
      "inputs": [
        {
          "internalType": "uint8",
          "name": "_minBidIncrementPercentage",
          "type": "uint8"
        }
      ],
      "name": "initialize",
      "outputs": [],
      "stateMutability": "nonpayable",
      "type": "function"
    },
    {
      "inputs": [],
      "name": "minBidIncrementPercentage",
      "outputs": [
        {
          "internalType": "uint8",
          "name": "",
          "type": "uint8"
        }
      ],
      "stateMutability": "view",
      "type": "function"
    },
    {
      "inputs": [],
      "name": "owner",
      "outputs": [
        {
          "internalType": "address",
          "name": "",
          "type": "address"
        }
      ],
      "stateMutability": "view",
      "type": "function"
    },
    {
      "inputs": [],
      "name": "renounceOwnership",
      "outputs": [],
      "stateMutability": "nonpayable",
      "type": "function"
    },
    {
      "inputs": [
        {
          "internalType": "address",
          "name": "newOwner",
          "type": "address"
        }
      ],
      "name": "transferOwnership",
      "outputs": [],
      "stateMutability": "nonpayable",
      "type": "function"
    },
    {
      "inputs": [
        {
          "internalType": "address",
          "name": "newImplementation",
          "type": "address"
        }
      ],
      "name": "upgradeTo",
      "outputs": [],
      "stateMutability": "nonpayable",
      "type": "function"
    },
    {
      "inputs": [
        {
          "internalType": "address",
          "name": "newImplementation",
          "type": "address"
        },
        {
          "internalType": "bytes",
          "name": "data",
          "type": "bytes"
        }
      ],
      "name": "upgradeToAndCall",
      "outputs": [],
      "stateMutability": "payable",
      "type": "function"
    },
    {
      "inputs": [],
      "name": "version",
      "outputs": [
        {
          "internalType": "string",
          "name": "",
          "type": "string"
        }
      ],
      "stateMutability": "view",
      "type": "function"
    }
  ],
  "bytecode": "0x60a06040523060601b6080523480156200001857600080fd5b50600054610100900460ff16620000365760005460ff161562000040565b62000040620000e5565b620000a85760405162461bcd60e51b815260206004820152602e60248201527f496e697469616c697a61626c653a20636f6e747261637420697320616c72656160448201526d191e481a5b9a5d1a585b1a5e995960921b606482015260840160405180910390fd5b600054610100900460ff16158015620000cb576000805461ffff19166101011790555b8015620000de576000805461ff00191690555b5062000109565b6000620000fd306200010360201b6200145f1760201c565b15905090565b3b151590565b60805160601c611fa56200013d6000396000818161073001528181610779015281816108ef015261092f0152611fa56000f3fe6080604052600436106100fe5760003560e01c806358eb2df511610095578063b296024d11610064578063b296024d146102bc578063c23b139e146102e9578063f064c32e146102fc578063f2fde38b14610311578063f7e882981461033157600080fd5b806358eb2df5146101f3578063715018a6146102065780637d9f6db51461021b5780638da5cb5b1461029457600080fd5b80633659cfe6116100d15780633659cfe61461017c5780634351e6b61461019e5780634f1ef286146101be57806354fd4d50146101d157600080fd5b80630f08efe0146101035780630fb5a6b41461012e57806312e8558514610152578063202e374014610167575b600080fd5b34801561010f57600080fd5b50610118610344565b6040516101259190611bef565b60405180910390f35b34801561013a57600080fd5b5061014460fe5481565b604051908152602001610125565b34801561015e57600080fd5b5060fd54610144565b34801561017357600080fd5b50610118610515565b34801561018857600080fd5b5061019c610197366004611a80565b610725565b005b3480156101aa57600080fd5b5061019c6101b9366004611bb2565b6107f7565b61019c6101cc366004611a9a565b6108e4565b3480156101dd57600080fd5b506101e661099a565b6040516101259190611ca6565b61019c610201366004611b80565b610a28565b34801561021257600080fd5b5061019c610d7a565b34801561022757600080fd5b50610101546101025461010354610104546101055461025c94939291906001600160a01b03811690600160a01b900460ff1686565b6040805196875260208701959095529385019290925260608401526001600160a01b03166080830152151560a082015260c001610125565b3480156102a057600080fd5b5060c9546040516001600160a01b039091168152602001610125565b3480156102c857600080fd5b50610100546102d79060ff1681565b60405160ff9091168152602001610125565b61019c6102f7366004611b57565b610db0565b34801561030857600080fd5b5061011861113f565b34801561031d57600080fd5b5061019c61032c366004611a80565b61134f565b61019c61033f366004611b57565b6113e7565b6060600061035160fb5490565b9050600061035e60fc5490565b60fb5461036b9190611e7f565b90506000808267ffffffffffffffff81111561039757634e487b7160e01b600052604160045260246000fd5b6040519080825280602002602001820160405280156103d057816020015b6103bd611959565b8152602001906001900390816103b55790505b50905060005b8481101561050c576000610106816103ef846001611e28565b81526020810191909152604001600020600401546001600160a01b031614156104fa57600061041f826001611e28565b600081815261010660209081526040918290208251610140810184528154815260018201546001600160a01b039081169382019390935260028201549381019390935260038101548216606084015260048101549091166080830152600581015460a0830152600681015460ff808216151560c08501526101009182900416151560e084015260078201549083015260088101546101208301528551929350918590879081106104df57634e487b7160e01b600052603260045260246000fd5b60209081029190910101526104f5600186611e28565b945050505b8061050481611f01565b9150506103d6565b50949350505050565b6060600061052260fb5490565b905060008060005b8381101561058657336101066000610543846001611e28565b81526020810191909152604001600020600401546001600160a01b0316141561057457610571600184611e28565b92505b8061057e81611f01565b91505061052a565b5060008267ffffffffffffffff8111156105b057634e487b7160e01b600052604160045260246000fd5b6040519080825280602002602001820160405280156105e957816020015b6105d6611959565b8152602001906001900390816105ce5790505b50905060005b8481101561050c57336101066000610608846001611e28565b81526020810191909152604001600020600401546001600160a01b03161415610713576000610638826001611e28565b600081815261010660209081526040918290208251610140810184528154815260018201546001600160a01b039081169382019390935260028201549381019390935260038101548216606084015260048101549091166080830152600581015460a0830152600681015460ff808216151560c08501526101009182900416151560e084015260078201549083015260088101546101208301528551929350918590879081106106f857634e487b7160e01b600052603260045260246000fd5b602090810291909101015261070e600186611e28565b945050505b8061071d81611f01565b9150506105ef565b306001600160a01b037f00000000000000000000000000000000000000000000000000000000000000001614156107775760405162461bcd60e51b815260040161076e90611cd9565b60405180910390fd5b7f00000000000000000000000000000000000000000000000000000000000000006001600160a01b03166107a9611465565b6001600160a01b0316146107cf5760405162461bcd60e51b815260040161076e90611d25565b6107d881611493565b604080516000808252602082019092526107f4918391906114e7565b50565b600054610100900460ff166108125760005460ff1615610816565b303b155b6108795760405162461bcd60e51b815260206004820152602e60248201527f496e697469616c697a61626c653a20636f6e747261637420697320616c72656160448201526d191e481a5b9a5d1a585b1a5e995960921b606482015260840161076e565b600054610100900460ff1615801561089b576000805461ffff19166101011790555b6108a3611632565b6108ab611669565b610100805460ff191660ff84161790556658d15e1762800060fd556305265c0060fe5580156108e0576000805461ff00191690555b5050565b306001600160a01b037f000000000000000000000000000000000000000000000000000000000000000016141561092d5760405162461bcd60e51b815260040161076e90611cd9565b7f00000000000000000000000000000000000000000000000000000000000000006001600160a01b031661095f611465565b6001600160a01b0316146109855760405162461bcd60e51b815260040161076e90611d25565b61098e82611493565b6108e0828260016114e7565b60ff80546109a790611ec6565b80601f01602080910402602001604051908101604052809291908181526020018280546109d390611ec6565b8015610a205780601f106109f557610100808354040283529160200191610a20565b820191906000526020600020905b815481529060010190602001808311610a0357829003601f168201915b505050505081565b60026001541415610a4b5760405162461bcd60e51b815260040161076e90611df1565b600260015580610a9d5760405162461bcd60e51b815260206004820152601c60248201527f5072696365206d757374206265206174206c6561737420312077656900000000604482015260640161076e565b60fd543414610afa5760405162461bcd60e51b8152602060048201526024808201527f5072696365206d75737420626520657175616c20746f206c697374696e6720706044820152637269636560e01b606482015260840161076e565b610b0860fb80546001019055565b6000610b1360fb5490565b9050604051806101400160405280828152602001856001600160a01b03168152602001848152602001336001600160a01b0316815260200160006001600160a01b0316815260200183815260200160001515815260200160001515815260200160008152602001600081525061010660008381526020019081526020016000206000820151816000015560208201518160010160006101000a8154816001600160a01b0302191690836001600160a01b031602179055506040820151816002015560608201518160030160006101000a8154816001600160a01b0302191690836001600160a01b0316021790555060808201518160040160006101000a8154816001600160a01b0302191690836001600160a01b0316021790555060a0820151816005015560c08201518160060160006101000a81548160ff02191690831515021790555060e08201518160060160016101000a81548160ff02191690831515021790555061010082015181600701556101208201518160080155905050836001600160a01b03166323b872dd3330866040518463ffffffff1660e01b8152600401610ce0939291906001600160a01b039384168152919092166020820152604081019190915260600190565b600060405180830381600087803b158015610cfa57600080fd5b505af1158015610d0e573d6000803e3d6000fd5b50506040805133815260006020820181905281830187905260608201819052608082015290518693506001600160a01b038816925084917fc99151f4453170a67bc7441775fde1a3bc3220c06645df1121e703aab5e7da5d919081900360a00190a45050600180555050565b60c9546001600160a01b03163314610da45760405162461bcd60e51b815260040161076e90611d71565b610dae60006116a0565b565b60026001541415610dd35760405162461bcd60e51b815260040161076e90611df1565b6002600181905560008281526101066020818152604080842060058101549581015460089091015482518085018290527f3a2041756374696f6e20686173206e6f74207374617274656420796574000000818501528351603d818303018152605d909101909352948790529290915290918190610e635760405162461bcd60e51b815260040161076e9190611ca6565b50600084815261010660208181526040808420600801548151808401829052700e88105d58dd1a5bdb88195e1c1a5c9959607a1b81840152825160318183030181526051909101909252938890529190529081904210610ed65760405162461bcd60e51b815260040161076e9190611ca6565b506040805160c08101825261010154815261010254602082018190526101035492820192909252610104546060820152610105546001600160a01b038116608083015260ff600160a01b9091048116151560a0830152610100549192606492610f40921690611e60565b610f4a9190611e40565b8160200151610f599190611e28565b341015610fd0576040805162461bcd60e51b81526020600482015260248101919091527f4d7573742073656e64206d6f7265207468616e206c617374206269642062792060448201527f6d696e426964496e6372656d656e7450657263656e7461676520616d6f756e74606482015260840161076e565b3461010281905561010580546001600160a01b03191633179055600087815261010660205260408082206003015490516001600160a01b03919091169280156108fc0292909190818181858888f19350505050158015611034573d6000803e3d6000fd5b506040516323b872dd60e01b8152306004820152336024820152604481018590526001600160a01b038816906323b872dd90606401600060405180830381600087803b15801561108357600080fd5b505af1158015611097573d6000803e3d6000fd5b5050506000878152610106602052604090206004810180546001600160a01b03191633179055600601805461ffff19166001179055506110db60fc80546001019055565b60c95460fd546040516001600160a01b039092169181156108fc0291906000818181858888f19350505050158015611117573d6000803e3d6000fd5b50600061112360fc5490565b60fb546111309190611e7f565b50506001805550505050505050565b6060600061114c60fb5490565b905060008060005b838110156111b05733610106600061116d846001611e28565b81526020810191909152604001600020600301546001600160a01b0316141561119e5761119b600184611e28565b92505b806111a881611f01565b915050611154565b5060008267ffffffffffffffff8111156111da57634e487b7160e01b600052604160045260246000fd5b60405190808252806020026020018201604052801561121357816020015b611200611959565b8152602001906001900390816111f85790505b50905060005b8481101561050c57336101066000611232846001611e28565b81526020810191909152604001600020600301546001600160a01b0316141561133d576000611262826001611e28565b600081815261010660209081526040918290208251610140810184528154815260018201546001600160a01b039081169382019390935260028201549381019390935260038101548216606084015260048101549091166080830152600581015460a0830152600681015460ff808216151560c08501526101009182900416151560e0840152600782015490830152600881015461012083015285519293509185908790811061132257634e487b7160e01b600052603260045260246000fd5b6020908102919091010152611338600186611e28565b945050505b8061134781611f01565b915050611219565b60c9546001600160a01b031633146113795760405162461bcd60e51b815260040161076e90611d71565b6001600160a01b0381166113de5760405162461bcd60e51b815260206004820152602660248201527f4f776e61626c653a206e6577206f776e657220697320746865207a65726f206160448201526564647265737360d01b606482015260840161076e565b6107f4816116a0565b6002600154141561140a5760405162461bcd60e51b815260040161076e90611df1565b600260015560008181526101066020526040902060068101805461ff00191661010017905542600790910181905560fe5461144491611e28565b60009182526101066020526040909120600801555060018055565b3b151590565b7f360894a13ba1a3210667c828492db98dca3e2076cc3735a920a3ca505d382bbc546001600160a01b031690565b60c9546001600160a01b031633146114bd5760405162461bcd60e51b815260040161076e90611d71565b604080518082019091526003808252620312e360ec1b60209092019182526108e09160ff916119cb565b60006114f1611465565b90506114fc846116f2565b6000835111806115095750815b1561151a576115188484611797565b505b7f4910fdfa16fed3260ed0e7147f7cc6da11a60208b5b9406d12a635614ffd9143805460ff1661162b57805460ff191660011781556040516001600160a01b038316602482015261159990869060440160408051601f198184030181529190526020810180516001600160e01b0316631b2ce7f360e11b179052611797565b50805460ff191681556115aa611465565b6001600160a01b0316826001600160a01b0316146116225760405162461bcd60e51b815260206004820152602f60248201527f45524331393637557067726164653a207570677261646520627265616b73206660448201526e75727468657220757067726164657360881b606482015260840161076e565b61162b85611882565b5050505050565b600054610100900460ff166116595760405162461bcd60e51b815260040161076e90611da6565b6116616118c2565b610dae6118e9565b600054610100900460ff166116905760405162461bcd60e51b815260040161076e90611da6565b6116986118c2565b610dae6118c2565b60c980546001600160a01b038381166001600160a01b0319831681179093556040519116919082907f8be0079c531659141344cd1fd0a4f28419497f9722a3daafe3b4186f6b6457e090600090a35050565b803b6117565760405162461bcd60e51b815260206004820152602d60248201527f455243313936373a206e657720696d706c656d656e746174696f6e206973206e60448201526c1bdd08184818dbdb9d1c9858dd609a1b606482015260840161076e565b7f360894a13ba1a3210667c828492db98dca3e2076cc3735a920a3ca505d382bbc80546001600160a01b0319166001600160a01b0392909216919091179055565b6060823b6117f65760405162461bcd60e51b815260206004820152602660248201527f416464726573733a2064656c65676174652063616c6c20746f206e6f6e2d636f6044820152651b9d1c9858dd60d21b606482015260840161076e565b600080846001600160a01b0316846040516118119190611bd3565b600060405180830381855af49150503d806000811461184c576040519150601f19603f3d011682016040523d82523d6000602084013e611851565b606091505b50915091506118798282604051806060016040528060278152602001611f4960279139611919565b95945050505050565b61188b816116f2565b6040516001600160a01b038216907fbc7cd75a20ee27fd9adebab32041f755214dbc6bffa90cc0225b39da2e5c2d3b90600090a250565b600054610100900460ff16610dae5760405162461bcd60e51b815260040161076e90611da6565b600054610100900460ff166119105760405162461bcd60e51b815260040161076e90611da6565b610dae336116a0565b60608315611928575081611952565b8251156119385782518084602001fd5b8160405162461bcd60e51b815260040161076e9190611ca6565b9392505050565b6040518061014001604052806000815260200160006001600160a01b031681526020016000815260200160006001600160a01b0316815260200160006001600160a01b031681526020016000815260200160001515815260200160001515815260200160008152602001600081525090565b8280546119d790611ec6565b90600052602060002090601f0160209004810192826119f95760008555611a3f565b82601f10611a1257805160ff1916838001178555611a3f565b82800160010185558215611a3f579182015b82811115611a3f578251825591602001919060010190611a24565b50611a4b929150611a4f565b5090565b5b80821115611a4b5760008155600101611a50565b80356001600160a01b0381168114611a7b57600080fd5b919050565b600060208284031215611a91578081fd5b61195282611a64565b60008060408385031215611aac578081fd5b611ab583611a64565b9150602083013567ffffffffffffffff80821115611ad1578283fd5b818501915085601f830112611ae4578283fd5b813581811115611af657611af6611f32565b604051601f8201601f19908116603f01168101908382118183101715611b1e57611b1e611f32565b81604052828152886020848701011115611b36578586fd5b82602086016020830137856020848301015280955050505050509250929050565b60008060408385031215611b69578182fd5b611b7283611a64565b946020939093013593505050565b600080600060608486031215611b94578081fd5b611b9d84611a64565b95602085013595506040909401359392505050565b600060208284031215611bc3578081fd5b813560ff81168114611952578182fd5b60008251611be5818460208701611e96565b9190910192915050565b602080825282518282018190526000919060409081850190868401855b82811015611c9957815180518552868101516001600160a01b039081168887015286820151878701526060808301518216908701526080808301519091169086015260a0808201519086015260c08082015115159086015260e080820151151590860152610100808201519086015261012090810151908501526101409093019290850190600101611c0c565b5091979650505050505050565b6020815260008251806020840152611cc5816040850160208701611e96565b601f01601f19169190910160400192915050565b6020808252602c908201527f46756e6374696f6e206d7573742062652063616c6c6564207468726f7567682060408201526b19195b1959d85d1958d85b1b60a21b606082015260800190565b6020808252602c908201527f46756e6374696f6e206d7573742062652063616c6c6564207468726f7567682060408201526b6163746976652070726f787960a01b606082015260800190565b6020808252818101527f4f776e61626c653a2063616c6c6572206973206e6f7420746865206f776e6572604082015260600190565b6020808252602b908201527f496e697469616c697a61626c653a20636f6e7472616374206973206e6f74206960408201526a6e697469616c697a696e6760a81b606082015260800190565b6020808252601f908201527f5265656e7472616e637947756172643a207265656e7472616e742063616c6c00604082015260600190565b60008219821115611e3b57611e3b611f1c565b500190565b600082611e5b57634e487b7160e01b81526012600452602481fd5b500490565b6000816000190483118215151615611e7a57611e7a611f1c565b500290565b600082821015611e9157611e91611f1c565b500390565b60005b83811015611eb1578181015183820152602001611e99565b83811115611ec0576000848401525b50505050565b600181811c90821680611eda57607f821691505b60208210811415611efb57634e487b7160e01b600052602260045260246000fd5b50919050565b6000600019821415611f1557611f15611f1c565b5060010190565b634e487b7160e01b600052601160045260246000fd5b634e487b7160e01b600052604160045260246000fdfe416464726573733a206c6f772d6c6576656c2064656c65676174652063616c6c206661696c6564a2646970667358221220a65073a930c256e2ec1157b16a26628f1a192fa48e8ab70c16911604cc7b1f7e64736f6c63430008040033",
  "linkReferences": {},
  "deployedLinkReferences": {}
}