{
  "_format": "hh-sol-artifact-1",
  "contractName": "NFTMarketV3",
  "sourceName": "contracts/MarketV3.sol",
  "abi": [
    {
      "inputs": [],
      "stateMutability": "nonpayable",
      "type": "constructor"
    },
    {
      "anonymous": false,
      "inputs": [
        {
          "indexed": false,
          "internalType": "address",
          "name": "previousAdmin",
          "type": "address"
        },
        {
          "indexed": false,
          "internalType": "address",
          "name": "newAdmin",
          "type": "address"
        }
      ],
      "name": "AdminChanged",
      "type": "event"
    },
    {
      "anonymous": false,
      "inputs": [
        {
          "indexed": true,
          "internalType": "uint256",
          "name": "nounId",
          "type": "uint256"
        },
        {
          "indexed": false,
          "internalType": "address",
          "name": "sender",
          "type": "address"
        },
        {
          "indexed": false,
          "internalType": "uint256",
          "name": "value",
          "type": "uint256"
        },
        {
          "indexed": false,
          "internalType": "bool",
          "name": "extended",
          "type": "bool"
        }
      ],
      "name": "AuctionBid",
      "type": "event"
    },
    {
      "anonymous": false,
      "inputs": [
        {
          "indexed": true,
          "internalType": "uint256",
          "name": "nounId",
          "type": "uint256"
        },
        {
          "indexed": false,
          "internalType": "uint256",
          "name": "startTime",
          "type": "uint256"
        },
        {
          "indexed": false,
          "internalType": "uint256",
          "name": "endTime",
          "type": "uint256"
        }
      ],
      "name": "AuctionCreated",
      "type": "event"
    },
    {
      "anonymous": false,
      "inputs": [
        {
          "indexed": true,
          "internalType": "uint256",
          "name": "nounId",
          "type": "uint256"
        },
        {
          "indexed": false,
          "internalType": "uint256",
          "name": "endTime",
          "type": "uint256"
        }
      ],
      "name": "AuctionExtended",
      "type": "event"
    },
    {
      "anonymous": false,
      "inputs": [
        {
          "indexed": false,
          "internalType": "uint256",
          "name": "minBidIncrementPercentage",
          "type": "uint256"
        }
      ],
      "name": "AuctionMinBidIncrementPercentageUpdated",
      "type": "event"
    },
    {
      "anonymous": false,
      "inputs": [
        {
          "indexed": false,
          "internalType": "uint256",
          "name": "reservePrice",
          "type": "uint256"
        }
      ],
      "name": "AuctionReservePriceUpdated",
      "type": "event"
    },
    {
      "anonymous": false,
      "inputs": [
        {
          "indexed": true,
          "internalType": "uint256",
          "name": "nounId",
          "type": "uint256"
        },
        {
          "indexed": false,
          "internalType": "address",
          "name": "winner",
          "type": "address"
        },
        {
          "indexed": false,
          "internalType": "uint256",
          "name": "amount",
          "type": "uint256"
        }
      ],
      "name": "AuctionSettled",
      "type": "event"
    },
    {
      "anonymous": false,
      "inputs": [
        {
          "indexed": false,
          "internalType": "uint256",
          "name": "timeBuffer",
          "type": "uint256"
        }
      ],
      "name": "AuctionTimeBufferUpdated",
      "type": "event"
    },
    {
      "anonymous": false,
      "inputs": [
        {
          "indexed": true,
          "internalType": "address",
          "name": "beacon",
          "type": "address"
        }
      ],
      "name": "BeaconUpgraded",
      "type": "event"
    },
    {
      "anonymous": false,
      "inputs": [
        {
          "indexed": true,
          "internalType": "uint256",
          "name": "itemId",
          "type": "uint256"
        },
        {
          "indexed": true,
          "internalType": "address",
          "name": "nftContract",
          "type": "address"
        },
        {
          "indexed": true,
          "internalType": "uint256",
          "name": "tokenId",
          "type": "uint256"
        },
        {
          "indexed": false,
          "internalType": "address",
          "name": "seller",
          "type": "address"
        },
        {
          "indexed": false,
          "internalType": "address",
          "name": "owner",
          "type": "address"
        },
        {
          "indexed": false,
          "internalType": "uint256",
          "name": "price",
          "type": "uint256"
        },
        {
          "indexed": false,
          "internalType": "bool",
          "name": "sold",
          "type": "bool"
        },
        {
          "indexed": false,
          "internalType": "bool",
          "name": "auction",
          "type": "bool"
        }
      ],
      "name": "MarketItemCreated",
      "type": "event"
    },
    {
      "anonymous": false,
      "inputs": [
        {
          "indexed": true,
          "internalType": "address",
          "name": "previousOwner",
          "type": "address"
        },
        {
          "indexed": true,
          "internalType": "address",
          "name": "newOwner",
          "type": "address"
        }
      ],
      "name": "OwnershipTransferred",
      "type": "event"
    },
    {
      "anonymous": false,
      "inputs": [
        {
          "indexed": true,
          "internalType": "address",
          "name": "implementation",
          "type": "address"
        }
      ],
      "name": "Upgraded",
      "type": "event"
    },
    {
      "anonymous": false,
      "inputs": [
        {
          "indexed": false,
          "internalType": "uint256",
          "name": "value",
          "type": "uint256"
        }
      ],
      "name": "ValueChanged",
      "type": "event"
    },
    {
      "inputs": [],
      "name": "auction",
      "outputs": [
        {
          "internalType": "uint256",
          "name": "nounId",
          "type": "uint256"
        },
        {
          "internalType": "uint256",
          "name": "amount",
          "type": "uint256"
        },
        {
          "internalType": "uint256",
          "name": "startTime",
          "type": "uint256"
        },
        {
          "internalType": "uint256",
          "name": "endTime",
          "type": "uint256"
        },
        {
          "internalType": "address payable",
          "name": "bidder",
          "type": "address"
        },
        {
          "internalType": "bool",
          "name": "settled",
          "type": "bool"
        }
      ],
      "stateMutability": "view",
      "type": "function"
    },
    {
      "inputs": [
        {
          "internalType": "address",
          "name": "nftContract",
          "type": "address"
        },
        {
          "internalType": "uint256",
          "name": "itemId",
          "type": "uint256"
        }
      ],
      "name": "createAuction",
      "outputs": [],
      "stateMutability": "payable",
      "type": "function"
    },
    {
      "inputs": [
        {
          "internalType": "address",
          "name": "nftContract",
          "type": "address"
        },
        {
          "internalType": "uint256",
          "name": "tokenId",
          "type": "uint256"
        },
        {
          "internalType": "uint256",
          "name": "price",
          "type": "uint256"
        }
      ],
      "name": "createMarketItem",
      "outputs": [],
      "stateMutability": "payable",
      "type": "function"
    },
    {
      "inputs": [
        {
          "internalType": "address",
          "name": "nftContract",
          "type": "address"
        },
        {
          "internalType": "uint256",
          "name": "itemId",
          "type": "uint256"
        }
      ],
      "name": "createMarketSale",
      "outputs": [],
      "stateMutability": "payable",
      "type": "function"
    },
    {
      "inputs": [],
      "name": "duration",
      "outputs": [
        {
          "internalType": "uint256",
          "name": "",
          "type": "uint256"
        }
      ],
      "stateMutability": "view",
      "type": "function"
    },
    {
      "inputs": [],
      "name": "fetchItemsCreated",
      "outputs": [
        {
          "components": [
            {
              "internalType": "uint256",
              "name": "itemId",
              "type": "uint256"
            },
            {
              "internalType": "address",
              "name": "nftContract",
              "type": "address"
            },
            {
              "internalType": "uint256",
              "name": "tokenId",
              "type": "uint256"
            },
            {
              "internalType": "address payable",
              "name": "seller",
              "type": "address"
            },
            {
              "internalType": "address payable",
              "name": "owner",
              "type": "address"
            },
            {
              "internalType": "uint256",
              "name": "price",
              "type": "uint256"
            },
            {
              "internalType": "bool",
              "name": "sold",
              "type": "bool"
            },
            {
              "internalType": "bool",
              "name": "auction",
              "type": "bool"
            },
            {
              "internalType": "uint256",
              "name": "startTime",
              "type": "uint256"
            },
            {
              "internalType": "uint256",
              "name": "endTime",
              "type": "uint256"
            }
          ],
          "internalType": "struct NFTMarketV3.MarketItem[]",
          "name": "",
          "type": "tuple[]"
        }
      ],
      "stateMutability": "view",
      "type": "function"
    },
    {
      "inputs": [],
      "name": "fetchMarketItems",
      "outputs": [
        {
          "components": [
            {
              "internalType": "uint256",
              "name": "itemId",
              "type": "uint256"
            },
            {
              "internalType": "address",
              "name": "nftContract",
              "type": "address"
            },
            {
              "internalType": "uint256",
              "name": "tokenId",
              "type": "uint256"
            },
            {
              "internalType": "address payable",
              "name": "seller",
              "type": "address"
            },
            {
              "internalType": "address payable",
              "name": "owner",
              "type": "address"
            },
            {
              "internalType": "uint256",
              "name": "price",
              "type": "uint256"
            },
            {
              "internalType": "bool",
              "name": "sold",
              "type": "bool"
            },
            {
              "internalType": "bool",
              "name": "auction",
              "type": "bool"
            },
            {
              "internalType": "uint256",
              "name": "startTime",
              "type": "uint256"
            },
            {
              "internalType": "uint256",
              "name": "endTime",
              "type": "uint256"
            }
          ],
          "internalType": "struct NFTMarketV3.MarketItem[]",
          "name": "",
          "type": "tuple[]"
        }
      ],
      "stateMutability": "view",
      "type": "function"
    },
    {
      "inputs": [],
      "name": "fetchMyNFTs",
      "outputs": [
        {
          "components": [
            {
              "internalType": "uint256",
              "name": "itemId",
              "type": "uint256"
            },
            {
              "internalType": "address",
              "name": "nftContract",
              "type": "address"
            },
            {
              "internalType": "uint256",
              "name": "tokenId",
              "type": "uint256"
            },
            {
              "internalType": "address payable",
              "name": "seller",
              "type": "address"
            },
            {
              "internalType": "address payable",
              "name": "owner",
              "type": "address"
            },
            {
              "internalType": "uint256",
              "name": "price",
              "type": "uint256"
            },
            {
              "internalType": "bool",
              "name": "sold",
              "type": "bool"
            },
            {
              "internalType": "bool",
              "name": "auction",
              "type": "bool"
            },
            {
              "internalType": "uint256",
              "name": "startTime",
              "type": "uint256"
            },
            {
              "internalType": "uint256",
              "name": "endTime",
              "type": "uint256"
            }
          ],
          "internalType": "struct NFTMarketV3.MarketItem[]",
          "name": "",
          "type": "tuple[]"
        }
      ],
      "stateMutability": "view",
      "type": "function"
    },
    {
      "inputs": [],
      "name": "getListingPrice",
      "outputs": [
        {
          "internalType": "uint256",
          "name": "",
          "type": "uint256"
        }
      ],
      "stateMutability": "view",
      "type": "function"
    },
    {
      "inputs": [],
      "name": "incrementListingPrice",
      "outputs": [],
      "stateMutability": "nonpayable",
      "type": "function"
    },
    {
      "inputs": [],
      "name": "minBidIncrementPercentage",
      "outputs": [
        {
          "internalType": "uint8",
          "name": "",
          "type": "uint8"
        }
      ],
      "stateMutability": "view",
      "type": "function"
    },
    {
      "inputs": [],
      "name": "owner",
      "outputs": [
        {
          "internalType": "address",
          "name": "",
          "type": "address"
        }
      ],
      "stateMutability": "view",
      "type": "function"
    },
    {
      "inputs": [],
      "name": "renounceOwnership",
      "outputs": [],
      "stateMutability": "nonpayable",
      "type": "function"
    },
    {
      "inputs": [
        {
          "internalType": "address",
          "name": "newOwner",
          "type": "address"
        }
      ],
      "name": "transferOwnership",
      "outputs": [],
      "stateMutability": "nonpayable",
      "type": "function"
    },
    {
      "inputs": [
        {
          "internalType": "address",
          "name": "newImplementation",
          "type": "address"
        }
      ],
      "name": "upgradeTo",
      "outputs": [],
      "stateMutability": "nonpayable",
      "type": "function"
    },
    {
      "inputs": [
        {
          "internalType": "address",
          "name": "newImplementation",
          "type": "address"
        },
        {
          "internalType": "bytes",
          "name": "data",
          "type": "bytes"
        }
      ],
      "name": "upgradeToAndCall",
      "outputs": [],
      "stateMutability": "payable",
      "type": "function"
    },
    {
      "inputs": [],
      "name": "version",
      "outputs": [
        {
          "internalType": "string",
          "name": "",
          "type": "string"
        }
      ],
      "stateMutability": "view",
      "type": "function"
    }
  ],
  "bytecode": "0x60a06040523060601b6080523480156200001857600080fd5b50600054610100900460ff16620000365760005460ff161562000040565b62000040620000f1565b620000a85760405162461bcd60e51b815260206004820152602e60248201527f496e697469616c697a61626c653a20636f6e747261637420697320616c72656160448201526d191e481a5b9a5d1a585b1a5e995960921b606482015260840160405180910390fd5b600054610100900460ff16158015620000cb576000805461ffff19166101011790555b6706f05b59d3b2000060fd558015620000ea576000805461ff00191690555b5062000115565b600062000109306200010f60201b620013b31760201c565b15905090565b3b151590565b60805160601c611dc862000149600039600081816107250152818161076e015281816107f701526108370152611dc86000f3fe6080604052600436106100fe5760003560e01c8063715018a611610095578063bc91133911610064578063bc911339146102c9578063c23b139e146102de578063f064c32e146102f1578063f2fde38b14610306578063f7e882981461032657600080fd5b8063715018a6146101e65780637d9f6db5146101fb5780638da5cb5b14610274578063b296024d1461029c57600080fd5b80633659cfe6116100d15780633659cfe61461017c5780634f1ef2861461019e57806354fd4d50146101b157806358eb2df5146101d357600080fd5b80630f08efe0146101035780630fb5a6b41461012e57806312e8558514610152578063202e374014610167575b600080fd5b34801561010f57600080fd5b50610118610339565b6040516101259190611a5d565b60405180910390f35b34801561013a57600080fd5b5061014460fe5481565b604051908152602001610125565b34801561015e57600080fd5b5060fd54610144565b34801561017357600080fd5b5061011861050a565b34801561018857600080fd5b5061019c61019736600461190f565b61071a565b005b61019c6101ac366004611929565b6107ec565b3480156101bd57600080fd5b506101c66108a6565b6040516101259190611b14565b61019c6101e1366004611a0f565b610934565b3480156101f257600080fd5b5061019c610c86565b34801561020757600080fd5b50610101546101025461010354610104546101055461023c94939291906001600160a01b03811690600160a01b900460ff1686565b6040805196875260208701959095529385019290925260608401526001600160a01b03166080830152151560a082015260c001610125565b34801561028057600080fd5b5060c9546040516001600160a01b039091168152602001610125565b3480156102a857600080fd5b50610100546102b79060ff1681565b60405160ff9091168152602001610125565b3480156102d557600080fd5b5061019c610cbc565b61019c6102ec3660046119e6565b610d04565b3480156102fd57600080fd5b50610118611093565b34801561031257600080fd5b5061019c61032136600461190f565b6112a3565b61019c6103343660046119e6565b61133b565b6060600061034660fb5490565b9050600061035360fc5490565b60fb546103609190611ca2565b90506000808267ffffffffffffffff81111561038c57634e487b7160e01b600052604160045260246000fd5b6040519080825280602002602001820160405280156103c557816020015b6103b26117e8565b8152602001906001900390816103aa5790505b50905060005b84811015610501576000610106816103e4846001611c4b565b81526020810191909152604001600020600401546001600160a01b031614156104ef576000610414826001611c4b565b600081815261010660209081526040918290208251610140810184528154815260018201546001600160a01b039081169382019390935260028201549381019390935260038101548216606084015260048101549091166080830152600581015460a0830152600681015460ff808216151560c08501526101009182900416151560e084015260078201549083015260088101546101208301528551929350918590879081106104d457634e487b7160e01b600052603260045260246000fd5b60209081029190910101526104ea600186611c4b565b945050505b806104f981611d24565b9150506103cb565b50949350505050565b6060600061051760fb5490565b905060008060005b8381101561057b57336101066000610538846001611c4b565b81526020810191909152604001600020600401546001600160a01b0316141561056957610566600184611c4b565b92505b8061057381611d24565b91505061051f565b5060008267ffffffffffffffff8111156105a557634e487b7160e01b600052604160045260246000fd5b6040519080825280602002602001820160405280156105de57816020015b6105cb6117e8565b8152602001906001900390816105c35790505b50905060005b84811015610501573361010660006105fd846001611c4b565b81526020810191909152604001600020600401546001600160a01b0316141561070857600061062d826001611c4b565b600081815261010660209081526040918290208251610140810184528154815260018201546001600160a01b039081169382019390935260028201549381019390935260038101548216606084015260048101549091166080830152600581015460a0830152600681015460ff808216151560c08501526101009182900416151560e084015260078201549083015260088101546101208301528551929350918590879081106106ed57634e487b7160e01b600052603260045260246000fd5b6020908102919091010152610703600186611c4b565b945050505b8061071281611d24565b9150506105e4565b306001600160a01b037f000000000000000000000000000000000000000000000000000000000000000016141561076c5760405162461bcd60e51b815260040161076390611b47565b60405180910390fd5b7f00000000000000000000000000000000000000000000000000000000000000006001600160a01b031661079e6113b9565b6001600160a01b0316146107c45760405162461bcd60e51b815260040161076390611b93565b6107cd816113e7565b604080516000808252602082019092526107e99183919061143b565b50565b306001600160a01b037f00000000000000000000000000000000000000000000000000000000000000001614156108355760405162461bcd60e51b815260040161076390611b47565b7f00000000000000000000000000000000000000000000000000000000000000006001600160a01b03166108676113b9565b6001600160a01b03161461088d5760405162461bcd60e51b815260040161076390611b93565b610896826113e7565b6108a28282600161143b565b5050565b60ff80546108b390611ce9565b80601f01602080910402602001604051908101604052809291908181526020018280546108df90611ce9565b801561092c5780601f106109015761010080835404028352916020019161092c565b820191906000526020600020905b81548152906001019060200180831161090f57829003601f168201915b505050505081565b600260015414156109575760405162461bcd60e51b815260040161076390611c14565b6002600155806109a95760405162461bcd60e51b815260206004820152601c60248201527f5072696365206d757374206265206174206c65617374203120776569000000006044820152606401610763565b60fd543414610a065760405162461bcd60e51b8152602060048201526024808201527f5072696365206d75737420626520657175616c20746f206c697374696e6720706044820152637269636560e01b6064820152608401610763565b610a1460fb80546001019055565b6000610a1f60fb5490565b9050604051806101400160405280828152602001856001600160a01b03168152602001848152602001336001600160a01b0316815260200160006001600160a01b0316815260200183815260200160001515815260200160001515815260200160008152602001600081525061010660008381526020019081526020016000206000820151816000015560208201518160010160006101000a8154816001600160a01b0302191690836001600160a01b031602179055506040820151816002015560608201518160030160006101000a8154816001600160a01b0302191690836001600160a01b0316021790555060808201518160040160006101000a8154816001600160a01b0302191690836001600160a01b0316021790555060a0820151816005015560c08201518160060160006101000a81548160ff02191690831515021790555060e08201518160060160016101000a81548160ff02191690831515021790555061010082015181600701556101208201518160080155905050836001600160a01b03166323b872dd3330866040518463ffffffff1660e01b8152600401610bec939291906001600160a01b039384168152919092166020820152604081019190915260600190565b600060405180830381600087803b158015610c0657600080fd5b505af1158015610c1a573d6000803e3d6000fd5b50506040805133815260006020820181905281830187905260608201819052608082015290518693506001600160a01b038816925084917fc99151f4453170a67bc7441775fde1a3bc3220c06645df1121e703aab5e7da5d919081900360a00190a45050600180555050565b60c9546001600160a01b03163314610cb05760405162461bcd60e51b815260040161076390611bdf565b610cba6000611586565b565b60fd54610cca906001611c4b565b60fd8190556040519081527f93fe6d397c74fdf1402a8b72e47b68512f0510d7b98a4bc4cbdf6ac7108b3c599060200160405180910390a1565b60026001541415610d275760405162461bcd60e51b815260040161076390611c14565b6002600181905560008281526101066020818152604080842060058101549581015460089091015482518085018290527f3a2041756374696f6e20686173206e6f74207374617274656420796574000000818501528351603d818303018152605d909101909352948790529290915290918190610db75760405162461bcd60e51b81526004016107639190611b14565b50600084815261010660208181526040808420600801548151808401829052700e88105d58dd1a5bdb88195e1c1a5c9959607a1b81840152825160318183030181526051909101909252938890529190529081904210610e2a5760405162461bcd60e51b81526004016107639190611b14565b506040805160c08101825261010154815261010254602082018190526101035492820192909252610104546060820152610105546001600160a01b038116608083015260ff600160a01b9091048116151560a0830152610100549192606492610e94921690611c83565b610e9e9190611c63565b8160200151610ead9190611c4b565b341015610f24576040805162461bcd60e51b81526020600482015260248101919091527f4d7573742073656e64206d6f7265207468616e206c617374206269642062792060448201527f6d696e426964496e6372656d656e7450657263656e7461676520616d6f756e746064820152608401610763565b3461010281905561010580546001600160a01b03191633179055600087815261010660205260408082206003015490516001600160a01b03919091169280156108fc0292909190818181858888f19350505050158015610f88573d6000803e3d6000fd5b506040516323b872dd60e01b8152306004820152336024820152604481018590526001600160a01b038816906323b872dd90606401600060405180830381600087803b158015610fd757600080fd5b505af1158015610feb573d6000803e3d6000fd5b5050506000878152610106602052604090206004810180546001600160a01b03191633179055600601805461ffff191660011790555061102f60fc80546001019055565b60c95460fd546040516001600160a01b039092169181156108fc0291906000818181858888f1935050505015801561106b573d6000803e3d6000fd5b50600061107760fc5490565b60fb546110849190611ca2565b50506001805550505050505050565b606060006110a060fb5490565b905060008060005b83811015611104573361010660006110c1846001611c4b565b81526020810191909152604001600020600301546001600160a01b031614156110f2576110ef600184611c4b565b92505b806110fc81611d24565b9150506110a8565b5060008267ffffffffffffffff81111561112e57634e487b7160e01b600052604160045260246000fd5b60405190808252806020026020018201604052801561116757816020015b6111546117e8565b81526020019060019003908161114c5790505b50905060005b8481101561050157336101066000611186846001611c4b565b81526020810191909152604001600020600301546001600160a01b031614156112915760006111b6826001611c4b565b600081815261010660209081526040918290208251610140810184528154815260018201546001600160a01b039081169382019390935260028201549381019390935260038101548216606084015260048101549091166080830152600581015460a0830152600681015460ff808216151560c08501526101009182900416151560e0840152600782015490830152600881015461012083015285519293509185908790811061127657634e487b7160e01b600052603260045260246000fd5b602090810291909101015261128c600186611c4b565b945050505b8061129b81611d24565b91505061116d565b60c9546001600160a01b031633146112cd5760405162461bcd60e51b815260040161076390611bdf565b6001600160a01b0381166113325760405162461bcd60e51b815260206004820152602660248201527f4f776e61626c653a206e6577206f776e657220697320746865207a65726f206160448201526564647265737360d01b6064820152608401610763565b6107e981611586565b6002600154141561135e5760405162461bcd60e51b815260040161076390611c14565b600260015560008181526101066020526040902060068101805461ff00191661010017905542600790910181905560fe5461139891611c4b565b60009182526101066020526040909120600801555060018055565b3b151590565b7f360894a13ba1a3210667c828492db98dca3e2076cc3735a920a3ca505d382bbc546001600160a01b031690565b60c9546001600160a01b031633146114115760405162461bcd60e51b815260040161076390611bdf565b604080518082019091526003808252620332e360ec1b60209092019182526108a29160ff9161185a565b60006114456113b9565b9050611450846115d8565b60008351118061145d5750815b1561146e5761146c848461167d565b505b7f4910fdfa16fed3260ed0e7147f7cc6da11a60208b5b9406d12a635614ffd9143805460ff1661157f57805460ff191660011781556040516001600160a01b03831660248201526114ed90869060440160408051601f198184030181529190526020810180516001600160e01b0316631b2ce7f360e11b17905261167d565b50805460ff191681556114fe6113b9565b6001600160a01b0316826001600160a01b0316146115765760405162461bcd60e51b815260206004820152602f60248201527f45524331393637557067726164653a207570677261646520627265616b73206660448201526e75727468657220757067726164657360881b6064820152608401610763565b61157f85611768565b5050505050565b60c980546001600160a01b038381166001600160a01b0319831681179093556040519116919082907f8be0079c531659141344cd1fd0a4f28419497f9722a3daafe3b4186f6b6457e090600090a35050565b803b61163c5760405162461bcd60e51b815260206004820152602d60248201527f455243313936373a206e657720696d706c656d656e746174696f6e206973206e60448201526c1bdd08184818dbdb9d1c9858dd609a1b6064820152608401610763565b7f360894a13ba1a3210667c828492db98dca3e2076cc3735a920a3ca505d382bbc80546001600160a01b0319166001600160a01b0392909216919091179055565b6060823b6116dc5760405162461bcd60e51b815260206004820152602660248201527f416464726573733a2064656c65676174652063616c6c20746f206e6f6e2d636f6044820152651b9d1c9858dd60d21b6064820152608401610763565b600080846001600160a01b0316846040516116f79190611a41565b600060405180830381855af49150503d8060008114611732576040519150601f19603f3d011682016040523d82523d6000602084013e611737565b606091505b509150915061175f8282604051806060016040528060278152602001611d6c602791396117a8565b95945050505050565b611771816115d8565b6040516001600160a01b038216907fbc7cd75a20ee27fd9adebab32041f755214dbc6bffa90cc0225b39da2e5c2d3b90600090a250565b606083156117b75750816117e1565b8251156117c75782518084602001fd5b8160405162461bcd60e51b81526004016107639190611b14565b9392505050565b6040518061014001604052806000815260200160006001600160a01b031681526020016000815260200160006001600160a01b0316815260200160006001600160a01b031681526020016000815260200160001515815260200160001515815260200160008152602001600081525090565b82805461186690611ce9565b90600052602060002090601f01602090048101928261188857600085556118ce565b82601f106118a157805160ff19168380011785556118ce565b828001600101855582156118ce579182015b828111156118ce5782518255916020019190600101906118b3565b506118da9291506118de565b5090565b5b808211156118da57600081556001016118df565b80356001600160a01b038116811461190a57600080fd5b919050565b600060208284031215611920578081fd5b6117e1826118f3565b6000806040838503121561193b578081fd5b611944836118f3565b9150602083013567ffffffffffffffff80821115611960578283fd5b818501915085601f830112611973578283fd5b81358181111561198557611985611d55565b604051601f8201601f19908116603f011681019083821181831017156119ad576119ad611d55565b816040528281528860208487010111156119c5578586fd5b82602086016020830137856020848301015280955050505050509250929050565b600080604083850312156119f8578182fd5b611a01836118f3565b946020939093013593505050565b600080600060608486031215611a23578081fd5b611a2c846118f3565b95602085013595506040909401359392505050565b60008251611a53818460208701611cb9565b9190910192915050565b602080825282518282018190526000919060409081850190868401855b82811015611b0757815180518552868101516001600160a01b039081168887015286820151878701526060808301518216908701526080808301519091169086015260a0808201519086015260c08082015115159086015260e080820151151590860152610100808201519086015261012090810151908501526101409093019290850190600101611a7a565b5091979650505050505050565b6020815260008251806020840152611b33816040850160208701611cb9565b601f01601f19169190910160400192915050565b6020808252602c908201527f46756e6374696f6e206d7573742062652063616c6c6564207468726f7567682060408201526b19195b1959d85d1958d85b1b60a21b606082015260800190565b6020808252602c908201527f46756e6374696f6e206d7573742062652063616c6c6564207468726f7567682060408201526b6163746976652070726f787960a01b606082015260800190565b6020808252818101527f4f776e61626c653a2063616c6c6572206973206e6f7420746865206f776e6572604082015260600190565b6020808252601f908201527f5265656e7472616e637947756172643a207265656e7472616e742063616c6c00604082015260600190565b60008219821115611c5e57611c5e611d3f565b500190565b600082611c7e57634e487b7160e01b81526012600452602481fd5b500490565b6000816000190483118215151615611c9d57611c9d611d3f565b500290565b600082821015611cb457611cb4611d3f565b500390565b60005b83811015611cd4578181015183820152602001611cbc565b83811115611ce3576000848401525b50505050565b600181811c90821680611cfd57607f821691505b60208210811415611d1e57634e487b7160e01b600052602260045260246000fd5b50919050565b6000600019821415611d3857611d38611d3f565b5060010190565b634e487b7160e01b600052601160045260246000fd5b634e487b7160e01b600052604160045260246000fdfe416464726573733a206c6f772d6c6576656c2064656c65676174652063616c6c206661696c6564a264697066735822122098735cc125350a18844fb2d83d971aafc6496b5d233b1bb3869166eadf416b7664736f6c63430008040033",
  "linkReferences": {},
  "deployedLinkReferences": {}
}